{"abi":[{"type":"constructor","inputs":[{"name":"_usdc","type":"address","internalType":"address"},{"name":"_lzEndpoint","type":"address","internalType":"address"},{"name":"_delegate","type":"address","internalType":"address"}],"stateMutability":"nonpayable"},{"type":"function","name":"BPS_DENOMINATOR","inputs":[],"outputs":[{"name":"","type":"uint256","internalType":"uint256"}],"stateMutability":"view"},{"type":"function","name":"MINT_PRICE","inputs":[],"outputs":[{"name":"","type":"uint256","internalType":"uint256"}],"stateMutability":"view"},{"type":"function","name":"PRIMARY_ARTIST_BPS","inputs":[],"outputs":[{"name":"","type":"uint256","internalType":"uint256"}],"stateMutability":"view"},{"type":"function","name":"allowInitializePath","inputs":[{"name":"origin","type":"tuple","internalType":"struct Origin","components":[{"name":"srcEid","type":"uint32","internalType":"uint32"},{"name":"sender","type":"bytes32","internalType":"bytes32"},{"name":"nonce","type":"uint64","internalType":"uint64"}]}],"outputs":[{"name":"","type":"bool","internalType":"bool"}],"stateMutability":"view"},{"type":"function","name":"balanceOf","inputs":[{"name":"account","type":"address","internalType":"address"},{"name":"id","type":"uint256","internalType":"uint256"}],"outputs":[{"name":"","type":"uint256","internalType":"uint256"}],"stateMutability":"view"},{"type":"function","name":"balanceOfBatch","inputs":[{"name":"accounts","type":"address[]","internalType":"address[]"},{"name":"ids","type":"uint256[]","internalType":"uint256[]"}],"outputs":[{"name":"","type":"uint256[]","internalType":"uint256[]"}],"stateMutability":"view"},{"type":"function","name":"botFee","inputs":[],"outputs":[{"name":"","type":"uint256","internalType":"uint256"}],"stateMutability":"view"},{"type":"function","name":"collectionMinted","inputs":[{"name":"","type":"uint256","internalType":"uint256"}],"outputs":[{"name":"","type":"uint256","internalType":"uint256"}],"stateMutability":"view"},{"type":"function","name":"collections","inputs":[{"name":"","type":"uint256","internalType":"uint256"}],"outputs":[{"name":"id","type":"uint256","internalType":"uint256"},{"name":"artist","type":"address","internalType":"address"},{"name":"splitter","type":"address","internalType":"address"},{"name":"baseUri","type":"string","internalType":"string"},{"name":"maxSupply","type":"uint256","internalType":"uint256"},{"name":"exists","type":"bool","internalType":"bool"}],"stateMutability":"view"},{"type":"function","name":"endpoint","inputs":[],"outputs":[{"name":"","type":"address","internalType":"contract ILayerZeroEndpointV2"}],"stateMutability":"view"},{"type":"function","name":"isApprovedForAll","inputs":[{"name":"account","type":"address","internalType":"address"},{"name":"operator","type":"address","internalType":"address"}],"outputs":[{"name":"","type":"bool","internalType":"bool"}],"stateMutability":"view"},{"type":"function","name":"isComposeMsgSender","inputs":[{"name":"","type":"tuple","internalType":"struct Origin","components":[{"name":"srcEid","type":"uint32","internalType":"uint32"},{"name":"sender","type":"bytes32","internalType":"bytes32"},{"name":"nonce","type":"uint64","internalType":"uint64"}]},{"name":"","type":"bytes","internalType":"bytes"},{"name":"_sender","type":"address","internalType":"address"}],"outputs":[{"name":"","type":"bool","internalType":"bool"}],"stateMutability":"view"},{"type":"function","name":"lzReceive","inputs":[{"name":"_origin","type":"tuple","internalType":"struct Origin","components":[{"name":"srcEid","type":"uint32","internalType":"uint32"},{"name":"sender","type":"bytes32","internalType":"bytes32"},{"name":"nonce","type":"uint64","internalType":"uint64"}]},{"name":"_guid","type":"bytes32","internalType":"bytes32"},{"name":"_message","type":"bytes","internalType":"bytes"},{"name":"_executor","type":"address","internalType":"address"},{"name":"_extraData","type":"bytes","internalType":"bytes"}],"outputs":[],"stateMutability":"payable"},{"type":"function","name":"mint","inputs":[{"name":"_collectionId","type":"uint256","internalType":"uint256"}],"outputs":[],"stateMutability":"nonpayable"},{"type":"function","name":"nextCollectionId","inputs":[],"outputs":[{"name":"","type":"uint256","internalType":"uint256"}],"stateMutability":"view"},{"type":"function","name":"nextNonce","inputs":[{"name":"","type":"uint32","internalType":"uint32"},{"name":"","type":"bytes32","internalType":"bytes32"}],"outputs":[{"name":"nonce","type":"uint64","internalType":"uint64"}],"stateMutability":"view"},{"type":"function","name":"oAppVersion","inputs":[],"outputs":[{"name":"senderVersion","type":"uint64","internalType":"uint64"},{"name":"receiverVersion","type":"uint64","internalType":"uint64"}],"stateMutability":"pure"},{"type":"function","name":"owner","inputs":[],"outputs":[{"name":"","type":"address","internalType":"address"}],"stateMutability":"view"},{"type":"function","name":"peers","inputs":[{"name":"eid","type":"uint32","internalType":"uint32"}],"outputs":[{"name":"peer","type":"bytes32","internalType":"bytes32"}],"stateMutability":"view"},{"type":"function","name":"publish","inputs":[{"name":"_baseUri","type":"string","internalType":"string"},{"name":"_maxSupply","type":"uint256","internalType":"uint256"},{"name":"_collaborators","type":"address[]","internalType":"address[]"},{"name":"_shares","type":"uint256[]","internalType":"uint256[]"}],"outputs":[{"name":"","type":"uint256","internalType":"uint256"}],"stateMutability":"nonpayable"},{"type":"function","name":"quoteSyncSong","inputs":[{"name":"_dstEid","type":"uint32","internalType":"uint32"},{"name":"_collectionId","type":"uint256","internalType":"uint256"},{"name":"_options","type":"bytes","internalType":"bytes"}],"outputs":[{"name":"nativeFee","type":"uint256","internalType":"uint256"}],"stateMutability":"view"},{"type":"function","name":"renounceOwnership","inputs":[],"outputs":[],"stateMutability":"nonpayable"},{"type":"function","name":"safeBatchTransferFrom","inputs":[{"name":"from","type":"address","internalType":"address"},{"name":"to","type":"address","internalType":"address"},{"name":"ids","type":"uint256[]","internalType":"uint256[]"},{"name":"values","type":"uint256[]","internalType":"uint256[]"},{"name":"data","type":"bytes","internalType":"bytes"}],"outputs":[],"stateMutability":"nonpayable"},{"type":"function","name":"safeTransferFrom","inputs":[{"name":"from","type":"address","internalType":"address"},{"name":"to","type":"address","internalType":"address"},{"name":"id","type":"uint256","internalType":"uint256"},{"name":"value","type":"uint256","internalType":"uint256"},{"name":"data","type":"bytes","internalType":"bytes"}],"outputs":[],"stateMutability":"nonpayable"},{"type":"function","name":"setApprovalForAll","inputs":[{"name":"operator","type":"address","internalType":"address"},{"name":"approved","type":"bool","internalType":"bool"}],"outputs":[],"stateMutability":"nonpayable"},{"type":"function","name":"setBotFee","inputs":[{"name":"_fee","type":"uint256","internalType":"uint256"}],"outputs":[],"stateMutability":"nonpayable"},{"type":"function","name":"setDelegate","inputs":[{"name":"_delegate","type":"address","internalType":"address"}],"outputs":[],"stateMutability":"nonpayable"},{"type":"function","name":"setPeer","inputs":[{"name":"_eid","type":"uint32","internalType":"uint32"},{"name":"_peer","type":"bytes32","internalType":"bytes32"}],"outputs":[],"stateMutability":"nonpayable"},{"type":"function","name":"splitterImplementation","inputs":[],"outputs":[{"name":"","type":"address","internalType":"address"}],"stateMutability":"view"},{"type":"function","name":"supportsInterface","inputs":[{"name":"interfaceId","type":"bytes4","internalType":"bytes4"}],"outputs":[{"name":"","type":"bool","internalType":"bool"}],"stateMutability":"view"},{"type":"function","name":"syncSong","inputs":[{"name":"_dstEid","type":"uint32","internalType":"uint32"},{"name":"_collectionId","type":"uint256","internalType":"uint256"},{"name":"_options","type":"bytes","internalType":"bytes"}],"outputs":[{"name":"receipt","type":"tuple","internalType":"struct MessagingReceipt","components":[{"name":"guid","type":"bytes32","internalType":"bytes32"},{"name":"nonce","type":"uint64","internalType":"uint64"},{"name":"fee","type":"tuple","internalType":"struct MessagingFee","components":[{"name":"nativeFee","type":"uint256","internalType":"uint256"},{"name":"lzTokenFee","type":"uint256","internalType":"uint256"}]}]}],"stateMutability":"payable"},{"type":"function","name":"tokenToCollection","inputs":[{"name":"","type":"uint256","internalType":"uint256"}],"outputs":[{"name":"","type":"uint256","internalType":"uint256"}],"stateMutability":"view"},{"type":"function","name":"transferOwnership","inputs":[{"name":"newOwner","type":"address","internalType":"address"}],"outputs":[],"stateMutability":"nonpayable"},{"type":"function","name":"updateSplitterImplementation","inputs":[{"name":"_implementation","type":"address","internalType":"address"}],"outputs":[],"stateMutability":"nonpayable"},{"type":"function","name":"uri","inputs":[{"name":"tokenId","type":"uint256","internalType":"uint256"}],"outputs":[{"name":"","type":"string","internalType":"string"}],"stateMutability":"view"},{"type":"function","name":"usdc","inputs":[],"outputs":[{"name":"","type":"address","internalType":"contract IERC20"}],"stateMutability":"view"},{"type":"event","name":"ApprovalForAll","inputs":[{"name":"account","type":"address","indexed":true,"internalType":"address"},{"name":"operator","type":"address","indexed":true,"internalType":"address"},{"name":"approved","type":"bool","indexed":false,"internalType":"bool"}],"anonymous":false},{"type":"event","name":"CollectionPublished","inputs":[{"name":"collectionId","type":"uint256","indexed":true,"internalType":"uint256"},{"name":"artist","type":"address","indexed":true,"internalType":"address"},{"name":"splitter","type":"address","indexed":false,"internalType":"address"},{"name":"price","type":"uint256","indexed":false,"internalType":"uint256"}],"anonymous":false},{"type":"event","name":"OwnershipTransferred","inputs":[{"name":"previousOwner","type":"address","indexed":true,"internalType":"address"},{"name":"newOwner","type":"address","indexed":true,"internalType":"address"}],"anonymous":false},{"type":"event","name":"PeerSet","inputs":[{"name":"eid","type":"uint32","indexed":false,"internalType":"uint32"},{"name":"peer","type":"bytes32","indexed":false,"internalType":"bytes32"}],"anonymous":false},{"type":"event","name":"SongMinted","inputs":[{"name":"collectionId","type":"uint256","indexed":true,"internalType":"uint256"},{"name":"tokenId","type":"uint256","indexed":true,"internalType":"uint256"},{"name":"buyer","type":"address","indexed":true,"internalType":"address"}],"anonymous":false},{"type":"event","name":"SongSynced","inputs":[{"name":"dstEid","type":"uint32","indexed":false,"internalType":"uint32"},{"name":"collectionId","type":"uint256","indexed":false,"internalType":"uint256"},{"name":"guid","type":"bytes32","indexed":false,"internalType":"bytes32"}],"anonymous":false},{"type":"event","name":"TransferBatch","inputs":[{"name":"operator","type":"address","indexed":true,"internalType":"address"},{"name":"from","type":"address","indexed":true,"internalType":"address"},{"name":"to","type":"address","indexed":true,"internalType":"address"},{"name":"ids","type":"uint256[]","indexed":false,"internalType":"uint256[]"},{"name":"values","type":"uint256[]","indexed":false,"internalType":"uint256[]"}],"anonymous":false},{"type":"event","name":"TransferSingle","inputs":[{"name":"operator","type":"address","indexed":true,"internalType":"address"},{"name":"from","type":"address","indexed":true,"internalType":"address"},{"name":"to","type":"address","indexed":true,"internalType":"address"},{"name":"id","type":"uint256","indexed":false,"internalType":"uint256"},{"name":"value","type":"uint256","indexed":false,"internalType":"uint256"}],"anonymous":false},{"type":"event","name":"URI","inputs":[{"name":"value","type":"string","indexed":false,"internalType":"string"},{"name":"id","type":"uint256","indexed":true,"internalType":"uint256"}],"anonymous":false},{"type":"error","name":"ERC1155InsufficientBalance","inputs":[{"name":"sender","type":"address","internalType":"address"},{"name":"balance","type":"uint256","internalType":"uint256"},{"name":"needed","type":"uint256","internalType":"uint256"},{"name":"tokenId","type":"uint256","internalType":"uint256"}]},{"type":"error","name":"ERC1155InvalidApprover","inputs":[{"name":"approver","type":"address","internalType":"address"}]},{"type":"error","name":"ERC1155InvalidArrayLength","inputs":[{"name":"idsLength","type":"uint256","internalType":"uint256"},{"name":"valuesLength","type":"uint256","internalType":"uint256"}]},{"type":"error","name":"ERC1155InvalidOperator","inputs":[{"name":"operator","type":"address","internalType":"address"}]},{"type":"error","name":"ERC1155InvalidReceiver","inputs":[{"name":"receiver","type":"address","internalType":"address"}]},{"type":"error","name":"ERC1155InvalidSender","inputs":[{"name":"sender","type":"address","internalType":"address"}]},{"type":"error","name":"ERC1155MissingApprovalForAll","inputs":[{"name":"operator","type":"address","internalType":"address"},{"name":"owner","type":"address","internalType":"address"}]},{"type":"error","name":"FailedDeployment","inputs":[]},{"type":"error","name":"InsufficientBalance","inputs":[{"name":"balance","type":"uint256","internalType":"uint256"},{"name":"needed","type":"uint256","internalType":"uint256"}]},{"type":"error","name":"InvalidDelegate","inputs":[]},{"type":"error","name":"InvalidEndpointCall","inputs":[]},{"type":"error","name":"LzTokenUnavailable","inputs":[]},{"type":"error","name":"NoPeer","inputs":[{"name":"eid","type":"uint32","internalType":"uint32"}]},{"type":"error","name":"NotEnoughNative","inputs":[{"name":"msgValue","type":"uint256","internalType":"uint256"}]},{"type":"error","name":"OnlyEndpoint","inputs":[{"name":"addr","type":"address","internalType":"address"}]},{"type":"error","name":"OnlyPeer","inputs":[{"name":"eid","type":"uint32","internalType":"uint32"},{"name":"sender","type":"bytes32","internalType":"bytes32"}]},{"type":"error","name":"OwnableInvalidOwner","inputs":[{"name":"owner","type":"address","internalType":"address"}]},{"type":"error","name":"OwnableUnauthorizedAccount","inputs":[{"name":"account","type":"address","internalType":"address"}]},{"type":"error","name":"ReentrancyGuardReentrantCall","inputs":[]},{"type":"error","name":"SafeERC20FailedOperation","inputs":[{"name":"token","type":"address","internalType":"address"}]}],"bytecode":{"object":"0x60a0604052620f1b30600955348015610016575f5ffd5b50604051617776380380617776833981810160405281019061003891906103d7565b818181818460405180602001604052805f81525061005b8161029660201b60201c565b505f73ffffffffffffffffffffffffffffffffffffffff168173ffffffffffffffffffffffffffffffffffffffff16036100cc575f6040517f1e4fbdf70000000000000000000000000000000000000000000000000000000081526004016100c39190610436565b60405180910390fd5b6100db816102a960201b60201c565b5060016004819055508173ffffffffffffffffffffffffffffffffffffffff1660808173ffffffffffffffffffffffffffffffffffffffff16815250505f73ffffffffffffffffffffffffffffffffffffffff168173ffffffffffffffffffffffffffffffffffffffff160361017d576040517fb586360400000000000000000000000000000000000000000000000000000000815260040160405180910390fd5b60805173ffffffffffffffffffffffffffffffffffffffff1663ca5eb5e1826040518263ffffffff1660e01b81526004016101b89190610436565b5f604051808303815f87803b1580156101cf575f5ffd5b505af11580156101e1573d5f5f3e3d5ffd5b50505050505050508260075f6101000a81548173ffffffffffffffffffffffffffffffffffffffff021916908373ffffffffffffffffffffffffffffffffffffffff1602179055506040516102359061036c565b604051809103905ff08015801561024e573d5f5f3e3d5ffd5b5060085f6101000a81548173ffffffffffffffffffffffffffffffffffffffff021916908373ffffffffffffffffffffffffffffffffffffffff16021790555050505061075b565b80600290816102a5919061068c565b5050565b5f60035f9054906101000a900473ffffffffffffffffffffffffffffffffffffffff1690508160035f6101000a81548173ffffffffffffffffffffffffffffffffffffffff021916908373ffffffffffffffffffffffffffffffffffffffff1602179055508173ffffffffffffffffffffffffffffffffffffffff168173ffffffffffffffffffffffffffffffffffffffff167f8be0079c531659141344cd1fd0a4f28419497f9722a3daafe3b4186f6b6457e060405160405180910390a35050565b611d3880615a3e83390190565b5f5ffd5b5f73ffffffffffffffffffffffffffffffffffffffff82169050919050565b5f6103a68261037d565b9050919050565b6103b68161039c565b81146103c0575f5ffd5b50565b5f815190506103d1816103ad565b92915050565b5f5f5f606084860312156103ee576103ed610379565b5b5f6103fb868287016103c3565b935050602061040c868287016103c3565b925050604061041d868287016103c3565b9150509250925092565b6104308161039c565b82525050565b5f6020820190506104495f830184610427565b92915050565b5f81519050919050565b7f4e487b71000000000000000000000000000000000000000000000000000000005f52604160045260245ffd5b7f4e487b71000000000000000000000000000000000000000000000000000000005f52602260045260245ffd5b5f60028204905060018216806104ca57607f821691505b6020821081036104dd576104dc610486565b5b50919050565b5f819050815f5260205f209050919050565b5f6020601f8301049050919050565b5f82821b905092915050565b5f6008830261053f7fffffffffffffffffffffffffffffffffffffffffffffffffffffffffffffffff82610504565b6105498683610504565b95508019841693508086168417925050509392505050565b5f819050919050565b5f819050919050565b5f61058d61058861058384610561565b61056a565b610561565b9050919050565b5f819050919050565b6105a683610573565b6105ba6105b282610594565b848454610510565b825550505050565b5f5f905090565b6105d16105c2565b6105dc81848461059d565b505050565b5b818110156105ff576105f45f826105c9565b6001810190506105e2565b5050565b601f82111561064457610615816104e3565b61061e846104f5565b8101602085101561062d578190505b610641610639856104f5565b8301826105e1565b50505b505050565b5f82821c905092915050565b5f6106645f1984600802610649565b1980831691505092915050565b5f61067c8383610655565b9150826002028217905092915050565b6106958261044f565b67ffffffffffffffff8111156106ae576106ad610459565b5b6106b882546104b3565b6106c3828285610603565b5f60209050601f8311600181146106f4575f84156106e2578287015190505b6106ec8582610671565b865550610753565b601f198416610702866104e3565b5f5b8281101561072957848901518255600182019150602085019450602081019050610704565b868310156107465784890151610742601f891682610655565b8355505b6001600288020188555050505b505050505050565b6080516152a161079d5f395f8181610b2001528181611375015281816118e50152818161232c0152818161250201528181612b690152612c6101526152a15ff3fe60806040526004361061020d575f3560e01c806382413eac11610117578063d74230311161009f578063e985e9c51161006e578063e985e9c5146107c4578063f242432a14610800578063f2fde38b14610828578063fdbda0ec14610850578063ff7bd03d146108915761020d565b8063d74230311461070a578063e1a4521814610746578063e63db9b214610770578063e77d6f7c1461079a5761020d565b8063a22cb465116100e6578063a22cb4651461062a578063bb0b6a5314610652578063bf8623911461068e578063c002d23d146106b8578063ca5eb5e1146106e25761020d565b806382413eac146105605780638753497b1461059c5780638da5cb5b146105d8578063a0712d68146106025761020d565b80632eb2c2d61161019a5780634e1273f4116101695780634e1273f4146104805780635e280f11146104bc57806362a80f7c146104e6578063715018a61461050e5780637d25a05e146105245761020d565b80632eb2c2d6146103d65780633400288b146103fe57806337625a8f146104265780633e413bee146104565761020d565b806313137d65116101e157806313137d65146102ef57806317442b701461030b578063195f78ae146103365780631b62bd1414610372578063261b0ca4146103ae5761020d565b8062fdd58e1461021157806301ffc9a71461024d5780630331582e146102895780630e89341c146102b3575b5f5ffd5b34801561021c575f5ffd5b50610237600480360381019061023291906134b2565b6108cd565b60405161024491906134ff565b60405180910390f35b348015610258575f5ffd5b50610273600480360381019061026e919061356d565b610922565b60405161028091906135b2565b60405180910390f35b348015610294575f5ffd5b5061029d610a03565b6040516102aa91906134ff565b60405180910390f35b3480156102be575f5ffd5b506102d960048036038101906102d491906135cb565b610a09565b6040516102e69190613666565b60405180910390f35b6103096004803603810190610304919061373c565b610b07565b005b348015610316575f5ffd5b5061031f610c27565b60405161032d929190613815565b60405180910390f35b348015610341575f5ffd5b5061035c600480360381019061035791906135cb565b610c35565b60405161036991906134ff565b60405180910390f35b34801561037d575f5ffd5b5061039860048036038101906103939190613ae4565b610c4a565b6040516103a591906134ff565b60405180910390f35b3480156103b9575f5ffd5b506103d460048036038101906103cf91906135cb565b610f64565b005b3480156103e1575f5ffd5b506103fc60048036038101906103f79190613c3a565b610f76565b005b348015610409575f5ffd5b50610424600480360381019061041f9190613d3e565b61101d565b005b610440600480360381019061043b9190613d7c565b611033565b60405161044d9190613e87565b60405180910390f35b348015610461575f5ffd5b5061046a611244565b6040516104779190613efb565b60405180910390f35b34801561048b575f5ffd5b506104a660048036038101906104a19190613f14565b611269565b6040516104b39190614032565b60405180910390f35b3480156104c7575f5ffd5b506104d0611373565b6040516104dd9190614072565b60405180910390f35b3480156104f1575f5ffd5b5061050c6004803603810190610507919061408b565b611397565b005b348015610519575f5ffd5b50610522611450565b005b34801561052f575f5ffd5b5061054a60048036038101906105459190613d3e565b611463565b60405161055791906140b6565b60405180910390f35b34801561056b575f5ffd5b50610586600480360381019061058191906140cf565b61146d565b60405161059391906135b2565b60405180910390f35b3480156105a7575f5ffd5b506105c260048036038101906105bd9190613d7c565b6114a7565b6040516105cf91906134ff565b60405180910390f35b3480156105e3575f5ffd5b506105ec6115c5565b6040516105f9919061414f565b60405180910390f35b34801561060d575f5ffd5b50610628600480360381019061062391906135cb565b6115ed565b005b348015610635575f5ffd5b50610650600480360381019061064b9190614192565b6118a3565b005b34801561065d575f5ffd5b50610678600480360381019061067391906141d0565b6118b9565b604051610685919061420a565b60405180910390f35b348015610699575f5ffd5b506106a26118ce565b6040516106af91906134ff565b60405180910390f35b3480156106c3575f5ffd5b506106cc6118d4565b6040516106d991906134ff565b60405180910390f35b3480156106ed575f5ffd5b506107086004803603810190610703919061408b565b6118db565b005b348015610715575f5ffd5b50610730600480360381019061072b91906135cb565b61196c565b60405161073d91906134ff565b60405180910390f35b348015610751575f5ffd5b5061075a611981565b60405161076791906134ff565b60405180910390f35b34801561077b575f5ffd5b50610784611987565b604051610791919061414f565b60405180910390f35b3480156107a5575f5ffd5b506107ae6119ac565b6040516107bb91906134ff565b60405180910390f35b3480156107cf575f5ffd5b506107ea60048036038101906107e59190614223565b6119b2565b6040516107f791906135b2565b60405180910390f35b34801561080b575f5ffd5b5061082660048036038101906108219190614261565b611a40565b005b348015610833575f5ffd5b5061084e6004803603810190610849919061408b565b611ae7565b005b34801561085b575f5ffd5b50610876600480360381019061087191906135cb565b611b6b565b604051610888969594939291906142f4565b60405180910390f35b34801561089c575f5ffd5b506108b760048036038101906108b2919061435a565b611c73565b6040516108c491906135b2565b60405180910390f35b5f5f5f8381526020019081526020015f205f8473ffffffffffffffffffffffffffffffffffffffff1673ffffffffffffffffffffffffffffffffffffffff1681526020019081526020015f2054905092915050565b5f7fd9b67a26000000000000000000000000000000000000000000000000000000007bffffffffffffffffffffffffffffffffffffffffffffffffffffffff1916827bffffffffffffffffffffffffffffffffffffffffffffffffffffffff191614806109ec57507f0e89341c000000000000000000000000000000000000000000000000000000007bffffffffffffffffffffffffffffffffffffffffffffffffffffffff1916827bffffffffffffffffffffffffffffffffffffffffffffffffffffffff1916145b806109fc57506109fb82611cb0565b5b9050919050565b61245481565b60605f600b5f8481526020019081526020015f20549050600a5f8281526020019081526020015f206005015f9054906101000a900460ff161580610a4d5750808314155b15610a6357610a5b83611d19565b915050610b02565b600a5f8281526020019081526020015f206003018054610a82906143b2565b80601f0160208091040260200160405190810160405280929190818152602001828054610aae906143b2565b8015610af95780601f10610ad057610100808354040283529160200191610af9565b820191905f5260205f20905b815481529060010190602001808311610adc57829003601f168201915b50505050509150505b919050565b3373ffffffffffffffffffffffffffffffffffffffff167f000000000000000000000000000000000000000000000000000000000000000073ffffffffffffffffffffffffffffffffffffffff1614610b9757336040517f91ac5e4f000000000000000000000000000000000000000000000000000000008152600401610b8e919061414f565b60405180910390fd5b8660200135610bb6885f016020810190610bb191906141d0565b611dab565b14610c0f57865f016020810190610bcd91906141d0565b87602001356040517fc26bebcc000000000000000000000000000000000000000000000000000000008152600401610c069291906143f1565b60405180910390fd5b610c1e87878787878787611e1c565b50505050505050565b5f5f60016002915091509091565b600b602052805f5260405f205f915090505481565b5f610c53612034565b610c5b6115c5565b73ffffffffffffffffffffffffffffffffffffffff163373ffffffffffffffffffffffffffffffffffffffff1614158015610c9757505f600954115b15610cf457610cf333610ca86115c5565b60095460075f9054906101000a900473ffffffffffffffffffffffffffffffffffffffff1673ffffffffffffffffffffffffffffffffffffffff1661207a909392919063ffffffff16565b5b5f60065f815480929190610d0790614445565b9190505590505f610d3860085f9054906101000a900473ffffffffffffffffffffffffffffffffffffffff166120fc565b90508073ffffffffffffffffffffffffffffffffffffffff16637fbbe46f86866040518363ffffffff1660e01b8152600401610d75929190614543565b5f604051808303815f87803b158015610d8c575f5ffd5b505af1158015610d9e573d5f5f3e3d5ffd5b505050506040518060c001604052808381526020013373ffffffffffffffffffffffffffffffffffffffff1681526020018273ffffffffffffffffffffffffffffffffffffffff16815260200188815260200187815260200160011515815250600a5f8481526020019081526020015f205f820151815f01556020820151816001015f6101000a81548173ffffffffffffffffffffffffffffffffffffffff021916908373ffffffffffffffffffffffffffffffffffffffff1602179055506040820151816002015f6101000a81548173ffffffffffffffffffffffffffffffffffffffff021916908373ffffffffffffffffffffffffffffffffffffffff1602179055506060820151816003019081610eb8919061470f565b506080820151816004015560a0820151816005015f6101000a81548160ff02191690831515021790555090505081600b5f8481526020019081526020015f20819055503373ffffffffffffffffffffffffffffffffffffffff16827fc8fa2169c501fd18a711b837125218b0f2b670230cd2105827f33068a6d2adb083620f1b30604051610f479291906147de565b60405180910390a38192505050610f5c61210e565b949350505050565b610f6c612118565b8060098190555050565b5f610f7f61219f565b90508073ffffffffffffffffffffffffffffffffffffffff168673ffffffffffffffffffffffffffffffffffffffff1614158015610fc45750610fc286826119b2565b155b156110085780866040517fe237d922000000000000000000000000000000000000000000000000000000008152600401610fff929190614805565b60405180910390fd5b61101586868686866121a6565b505050505050565b611025612118565b61102f828261229a565b5050565b61103b6133cd565b611043612034565b5f600a5f8681526020019081526020015f209050806005015f9054906101000a900460ff166110a7576040517f08c379a000000000000000000000000000000000000000000000000000000000815260040161109e90614876565b60405180910390fd5b806001015f9054906101000a900473ffffffffffffffffffffffffffffffffffffffff1673ffffffffffffffffffffffffffffffffffffffff163373ffffffffffffffffffffffffffffffffffffffff1614611138576040517f08c379a000000000000000000000000000000000000000000000000000000000815260040161112f906148de565b60405180910390fd5b5f815f0154826001015f9054906101000a900473ffffffffffffffffffffffffffffffffffffffff1683600401548460030160405160200161117d949392919061497d565b60405160208183030381529060405290506111f2878287878080601f0160208091040260200160405190810160405280939291908181526020018383808284375f81840152601f19601f8201169050808301925050505050505060405180604001604052803481526020015f815250336122f9565b92507fdda0cc34f9d600894710134f5d113a6fcedbddad306538a99250556191b9bb318787855f015160405161122a939291906149c7565b60405180910390a1505061123c61210e565b949350505050565b60075f9054906101000a900473ffffffffffffffffffffffffffffffffffffffff1681565b606081518351146112b557815183516040517f5b0599910000000000000000000000000000000000000000000000000000000081526004016112ac9291906149fc565b60405180910390fd5b5f835167ffffffffffffffff8111156112d1576112d0613840565b5b6040519080825280602002602001820160405280156112ff5781602001602082028036833780820191505090505b5090505f5f90505b84518110156113685761133e611326828761240f90919063ffffffff16565b611339838761242290919063ffffffff16565b6108cd565b82828151811061135157611350614a23565b5b602002602001018181525050806001019050611307565b508091505092915050565b7f000000000000000000000000000000000000000000000000000000000000000081565b61139f612118565b5f73ffffffffffffffffffffffffffffffffffffffff168173ffffffffffffffffffffffffffffffffffffffff160361140d576040517f08c379a000000000000000000000000000000000000000000000000000000000815260040161140490614a9a565b60405180910390fd5b8060085f6101000a81548173ffffffffffffffffffffffffffffffffffffffff021916908373ffffffffffffffffffffffffffffffffffffffff16021790555050565b611458612118565b6114615f612435565b565b5f5f905092915050565b5f3073ffffffffffffffffffffffffffffffffffffffff168273ffffffffffffffffffffffffffffffffffffffff16149050949350505050565b5f5f600a5f8681526020019081526020015f209050806005015f9054906101000a900460ff1661150c576040517f08c379a000000000000000000000000000000000000000000000000000000000815260040161150390614876565b60405180910390fd5b5f815f0154826001015f9054906101000a900473ffffffffffffffffffffffffffffffffffffffff16836004015484600301604051602001611551949392919061497d565b60405160208183030381529060405290505f6115b2888388888080601f0160208091040260200160405190810160405280939291908181526020018383808284375f81840152601f19601f820116905080830192505050505050505f6124f8565b9050805f01519350505050949350505050565b5f60035f9054906101000a900473ffffffffffffffffffffffffffffffffffffffff16905090565b6115f5612034565b5f600a5f8381526020019081526020015f209050806005015f9054906101000a900460ff16611659576040517f08c379a000000000000000000000000000000000000000000000000000000000815260040161165090614b02565b60405180910390fd5b5f8160040154148061167f57508060040154600c5f8481526020019081526020015f2054105b6116be576040517f08c379a00000000000000000000000000000000000000000000000000000000081526004016116b590614b6a565b60405180910390fd5b5f6116c933846108cd565b14611709576040517f08c379a000000000000000000000000000000000000000000000000000000000815260040161170090614bd2565b60405180910390fd5b5f61271061245461271061171d9190614bf0565b620f1b3061172b9190614c23565b6117359190614c91565b90505f81620f1b306117479190614bf0565b905061179e336117556115c5565b8460075f9054906101000a900473ffffffffffffffffffffffffffffffffffffffff1673ffffffffffffffffffffffffffffffffffffffff1661207a909392919063ffffffff16565b61180f33846002015f9054906101000a900473ffffffffffffffffffffffffffffffffffffffff168360075f9054906101000a900473ffffffffffffffffffffffffffffffffffffffff1673ffffffffffffffffffffffffffffffffffffffff1661207a909392919063ffffffff16565b600c5f8581526020019081526020015f205f81548092919061183090614445565b91905055506118503385600160405180602001604052805f8152506125d9565b3373ffffffffffffffffffffffffffffffffffffffff1684857f019e09abd07df6102a3f323b9ed37bd3455d80363247ec85718a54ccbf036be260405160405180910390a45050506118a061210e565b50565b6118b56118ae61219f565b838361266e565b5050565b6005602052805f5260405f205f915090505481565b60095481565b620f1b3081565b6118e3612118565b7f000000000000000000000000000000000000000000000000000000000000000073ffffffffffffffffffffffffffffffffffffffff1663ca5eb5e1826040518263ffffffff1660e01b815260040161193c919061414f565b5f604051808303815f87803b158015611953575f5ffd5b505af1158015611965573d5f5f3e3d5ffd5b5050505050565b600c602052805f5260405f205f915090505481565b61271081565b60085f9054906101000a900473ffffffffffffffffffffffffffffffffffffffff1681565b60065481565b5f60015f8473ffffffffffffffffffffffffffffffffffffffff1673ffffffffffffffffffffffffffffffffffffffff1681526020019081526020015f205f8373ffffffffffffffffffffffffffffffffffffffff1673ffffffffffffffffffffffffffffffffffffffff1681526020019081526020015f205f9054906101000a900460ff16905092915050565b5f611a4961219f565b90508073ffffffffffffffffffffffffffffffffffffffff168673ffffffffffffffffffffffffffffffffffffffff1614158015611a8e5750611a8c86826119b2565b155b15611ad25780866040517fe237d922000000000000000000000000000000000000000000000000000000008152600401611ac9929190614805565b60405180910390fd5b611adf86868686866127d7565b505050505050565b611aef612118565b5f73ffffffffffffffffffffffffffffffffffffffff168173ffffffffffffffffffffffffffffffffffffffff1603611b5f575f6040517f1e4fbdf7000000000000000000000000000000000000000000000000000000008152600401611b56919061414f565b60405180910390fd5b611b6881612435565b50565b600a602052805f5260405f205f91509050805f015490806001015f9054906101000a900473ffffffffffffffffffffffffffffffffffffffff1690806002015f9054906101000a900473ffffffffffffffffffffffffffffffffffffffff1690806003018054611bda906143b2565b80601f0160208091040260200160405190810160405280929190818152602001828054611c06906143b2565b8015611c515780601f10611c2857610100808354040283529160200191611c51565b820191905f5260205f20905b815481529060010190602001808311611c3457829003601f168201915b505050505090806004015490806005015f9054906101000a900460ff16905086565b5f816020013560055f845f016020810190611c8e91906141d0565b63ffffffff1663ffffffff1681526020019081526020015f2054149050919050565b5f7f01ffc9a7000000000000000000000000000000000000000000000000000000007bffffffffffffffffffffffffffffffffffffffffffffffffffffffff1916827bffffffffffffffffffffffffffffffffffffffffffffffffffffffff1916149050919050565b606060028054611d28906143b2565b80601f0160208091040260200160405190810160405280929190818152602001828054611d54906143b2565b8015611d9f5780601f10611d7657610100808354040283529160200191611d9f565b820191905f5260205f20905b815481529060010190602001808311611d8257829003601f168201915b50505050509050919050565b5f5f60055f8463ffffffff1663ffffffff1681526020019081526020015f205490505f5f1b8103611e1357826040517ff6ff4fb7000000000000000000000000000000000000000000000000000000008152600401611e0a9190614cc1565b60405180910390fd5b80915050919050565b5f5f5f5f8888810190611e2f9190614d15565b9350935093509350600a5f8581526020019081526020015f206005015f9054906101000a900460ff16612027576040518060c001604052808581526020018473ffffffffffffffffffffffffffffffffffffffff1681526020015f73ffffffffffffffffffffffffffffffffffffffff16815260200182815260200183815260200160011515815250600a5f8681526020019081526020015f205f820151815f01556020820151816001015f6101000a81548173ffffffffffffffffffffffffffffffffffffffff021916908373ffffffffffffffffffffffffffffffffffffffff1602179055506040820151816002015f6101000a81548173ffffffffffffffffffffffffffffffffffffffff021916908373ffffffffffffffffffffffffffffffffffffffff1602179055506060820151816003019081611f72919061470f565b506080820151816004015560a0820151816005015f6101000a81548160ff0219169083151502179055509050506006548410611fbc57600184611fb59190614d95565b6006819055505b83600b5f8681526020019081526020015f20819055508273ffffffffffffffffffffffffffffffffffffffff16847fc8fa2169c501fd18a711b837125218b0f2b670230cd2105827f33068a6d2adb05f620f1b3060405161201e9291906147de565b60405180910390a35b5050505050505050505050565b600260045403612070576040517f3ee5aeb500000000000000000000000000000000000000000000000000000000815260040160405180910390fd5b6002600481905550565b6120f6848573ffffffffffffffffffffffffffffffffffffffff166323b872dd8686866040516024016120af93929190614dc8565b604051602081830303815290604052915060e01b6020820180517bffffffffffffffffffffffffffffffffffffffffffffffffffffffff83818316178352505050506128dd565b50505050565b5f612107825f612978565b9050919050565b6001600481905550565b61212061219f565b73ffffffffffffffffffffffffffffffffffffffff1661213e6115c5565b73ffffffffffffffffffffffffffffffffffffffff161461219d5761216161219f565b6040517f118cdaa7000000000000000000000000000000000000000000000000000000008152600401612194919061414f565b60405180910390fd5b565b5f33905090565b5f73ffffffffffffffffffffffffffffffffffffffff168473ffffffffffffffffffffffffffffffffffffffff1603612216575f6040517f57f447ce00000000000000000000000000000000000000000000000000000000815260040161220d919061414f565b60405180910390fd5b5f73ffffffffffffffffffffffffffffffffffffffff168573ffffffffffffffffffffffffffffffffffffffff1603612286575f6040517f01a8351400000000000000000000000000000000000000000000000000000000815260040161227d919061414f565b60405180910390fd5b6122938585858585612a6d565b5050505050565b8060055f8463ffffffff1663ffffffff1681526020019081526020015f20819055507f238399d427b947898edb290f5ff0f9109849b1c3ba196a42e35f00c50a54b98b82826040516122ed9291906143f1565b60405180910390a15050565b6123016133cd565b5f61230e845f0151612b19565b90505f8460200151111561232a576123298460200151612b66565b5b7f000000000000000000000000000000000000000000000000000000000000000073ffffffffffffffffffffffffffffffffffffffff16632637a450826040518060a001604052808b63ffffffff1681526020016123878c611dab565b81526020018a81526020018981526020015f8960200151111515815250866040518463ffffffff1660e01b81526004016123c2929190614ee7565b60806040518083038185885af11580156123de573d5f5f3e3d5ffd5b50505050506040513d601f19601f820116820180604052508101906124039190615019565b91505095945050505050565b5f60208202602084010151905092915050565b5f60208202602084010151905092915050565b5f60035f9054906101000a900473ffffffffffffffffffffffffffffffffffffffff1690508160035f6101000a81548173ffffffffffffffffffffffffffffffffffffffff021916908373ffffffffffffffffffffffffffffffffffffffff1602179055508173ffffffffffffffffffffffffffffffffffffffff168173ffffffffffffffffffffffffffffffffffffffff167f8be0079c531659141344cd1fd0a4f28419497f9722a3daafe3b4186f6b6457e060405160405180910390a35050565b6125006133fc565b7f000000000000000000000000000000000000000000000000000000000000000073ffffffffffffffffffffffffffffffffffffffff1663ddc28c586040518060a001604052808863ffffffff16815260200161255c89611dab565b8152602001878152602001868152602001851515815250306040518363ffffffff1660e01b8152600401612591929190614ee7565b6040805180830381865afa1580156125ab573d5f5f3e3d5ffd5b505050506040513d601f19601f820116820180604052508101906125cf9190615044565b9050949350505050565b5f73ffffffffffffffffffffffffffffffffffffffff168473ffffffffffffffffffffffffffffffffffffffff1603612649575f6040517f57f447ce000000000000000000000000000000000000000000000000000000008152600401612640919061414f565b60405180910390fd5b5f5f6126558585612cac565b915091506126665f87848487612a6d565b505050505050565b5f73ffffffffffffffffffffffffffffffffffffffff168273ffffffffffffffffffffffffffffffffffffffff16036126de575f6040517fced3e1000000000000000000000000000000000000000000000000000000000081526004016126d5919061414f565b60405180910390fd5b8060015f8573ffffffffffffffffffffffffffffffffffffffff1673ffffffffffffffffffffffffffffffffffffffff1681526020019081526020015f205f8473ffffffffffffffffffffffffffffffffffffffff1673ffffffffffffffffffffffffffffffffffffffff1681526020019081526020015f205f6101000a81548160ff0219169083151502179055508173ffffffffffffffffffffffffffffffffffffffff168373ffffffffffffffffffffffffffffffffffffffff167f17307eab39ab6107e8899845ad3d59bd9653f200f220920489ca2b5937696c31836040516127ca91906135b2565b60405180910390a3505050565b5f73ffffffffffffffffffffffffffffffffffffffff168473ffffffffffffffffffffffffffffffffffffffff1603612847575f6040517f57f447ce00000000000000000000000000000000000000000000000000000000815260040161283e919061414f565b60405180910390fd5b5f73ffffffffffffffffffffffffffffffffffffffff168573ffffffffffffffffffffffffffffffffffffffff16036128b7575f6040517f01a835140000000000000000000000000000000000000000000000000000000081526004016128ae919061414f565b60405180910390fd5b5f5f6128c38585612cac565b915091506128d48787848487612a6d565b50505050505050565b5f5f60205f8451602086015f885af1806128fc576040513d5f823e3d81fd5b3d92505f519150505f8214612915576001811415612930565b5f8473ffffffffffffffffffffffffffffffffffffffff163b145b1561297257836040517f5274afe7000000000000000000000000000000000000000000000000000000008152600401612969919061414f565b60405180910390fd5b50505050565b5f814710156129c05747826040517fcf4791810000000000000000000000000000000000000000000000000000000081526004016129b79291906149fc565b60405180910390fd5b763d602d80600a3d3981f3363d3d373d3d3d363d730000008360601b60e81c175f526e5af43d82803e903d91602b57fd5bf38360781b176020526037600983f090505f73ffffffffffffffffffffffffffffffffffffffff168173ffffffffffffffffffffffffffffffffffffffff1603612a67576040517fb06ebf3d00000000000000000000000000000000000000000000000000000000815260040160405180910390fd5b92915050565b612a7985858585612cdc565b5f73ffffffffffffffffffffffffffffffffffffffff168473ffffffffffffffffffffffffffffffffffffffff1614612b12575f612ab561219f565b90506001845103612b01575f612ad45f8661242290919063ffffffff16565b90505f612aea5f8661242290919063ffffffff16565b9050612afa83898985858961306f565b5050612b10565b612b0f81878787878761321e565b5b505b5050505050565b5f813414612b5e57346040517f9f704120000000000000000000000000000000000000000000000000000000008152600401612b5591906134ff565b60405180910390fd5b819050919050565b5f7f000000000000000000000000000000000000000000000000000000000000000073ffffffffffffffffffffffffffffffffffffffff1663e4fe1d946040518163ffffffff1660e01b8152600401602060405180830381865afa158015612bd0573d5f5f3e3d5ffd5b505050506040513d601f19601f82011682018060405250810190612bf49190615083565b90505f73ffffffffffffffffffffffffffffffffffffffff168173ffffffffffffffffffffffffffffffffffffffff1603612c5b576040517f5373352a00000000000000000000000000000000000000000000000000000000815260040160405180910390fd5b612ca8337f0000000000000000000000000000000000000000000000000000000000000000848473ffffffffffffffffffffffffffffffffffffffff1661207a909392919063ffffffff16565b5050565b60608060405191506001825283602083015260408201905060018152826020820152604081016040529250929050565b8051825114612d2657815181516040517f5b059991000000000000000000000000000000000000000000000000000000008152600401612d1d9291906149fc565b60405180910390fd5b5f612d2f61219f565b90505f5f90505b8351811015612f2e575f612d53828661242290919063ffffffff16565b90505f612d69838661242290919063ffffffff16565b90505f73ffffffffffffffffffffffffffffffffffffffff168873ffffffffffffffffffffffffffffffffffffffff1614612e8c575f5f5f8481526020019081526020015f205f8a73ffffffffffffffffffffffffffffffffffffffff1673ffffffffffffffffffffffffffffffffffffffff1681526020019081526020015f2054905081811015612e3857888183856040517f03dee4c5000000000000000000000000000000000000000000000000000000008152600401612e2f94939291906150ae565b60405180910390fd5b8181035f5f8581526020019081526020015f205f8b73ffffffffffffffffffffffffffffffffffffffff1673ffffffffffffffffffffffffffffffffffffffff1681526020019081526020015f2081905550505b5f73ffffffffffffffffffffffffffffffffffffffff168773ffffffffffffffffffffffffffffffffffffffff1614612f2157805f5f8481526020019081526020015f205f8973ffffffffffffffffffffffffffffffffffffffff1673ffffffffffffffffffffffffffffffffffffffff1681526020019081526020015f205f828254612f199190614d95565b925050819055505b5050806001019050612d36565b506001835103612fe9575f612f4c5f8561242290919063ffffffff16565b90505f612f625f8561242290919063ffffffff16565b90508573ffffffffffffffffffffffffffffffffffffffff168773ffffffffffffffffffffffffffffffffffffffff168473ffffffffffffffffffffffffffffffffffffffff167fc3d58168c5ae7397731d063d5bbf3d657854427343f4c083240f7aacaa2d0f628585604051612fda9291906149fc565b60405180910390a45050613068565b8373ffffffffffffffffffffffffffffffffffffffff168573ffffffffffffffffffffffffffffffffffffffff168273ffffffffffffffffffffffffffffffffffffffff167f4a39dc06d4c0dbc64b70af90fd698a233a518aa5d07e595d983b8c0526c8f7fb868660405161305f9291906150f1565b60405180910390a45b5050505050565b5f8473ffffffffffffffffffffffffffffffffffffffff163b1115613216578373ffffffffffffffffffffffffffffffffffffffff1663f23a6e6187878686866040518663ffffffff1660e01b81526004016130cf95949392919061516e565b6020604051808303815f875af192505050801561310a57506040513d601f19601f8201168201806040525081019061310791906151da565b60015b61318b573d805f8114613138576040519150601f19603f3d011682016040523d82523d5f602084013e61313d565b606091505b505f81510361318357846040517f57f447ce00000000000000000000000000000000000000000000000000000000815260040161317a919061414f565b60405180910390fd5b805160208201fd5b63f23a6e6160e01b7bffffffffffffffffffffffffffffffffffffffffffffffffffffffff1916817bffffffffffffffffffffffffffffffffffffffffffffffffffffffff19161461321457846040517f57f447ce00000000000000000000000000000000000000000000000000000000815260040161320b919061414f565b60405180910390fd5b505b505050505050565b5f8473ffffffffffffffffffffffffffffffffffffffff163b11156133c5578373ffffffffffffffffffffffffffffffffffffffff1663bc197c8187878686866040518663ffffffff1660e01b815260040161327e959493929190615205565b6020604051808303815f875af19250505080156132b957506040513d601f19601f820116820180604052508101906132b691906151da565b60015b61333a573d805f81146132e7576040519150601f19603f3d011682016040523d82523d5f602084013e6132ec565b606091505b505f81510361333257846040517f57f447ce000000000000000000000000000000000000000000000000000000008152600401613329919061414f565b60405180910390fd5b805160208201fd5b63bc197c8160e01b7bffffffffffffffffffffffffffffffffffffffffffffffffffffffff1916817bffffffffffffffffffffffffffffffffffffffffffffffffffffffff1916146133c357846040517f57f447ce0000000000000000000000000000000000000000000000000000000081526004016133ba919061414f565b60405180910390fd5b505b505050505050565b60405180606001604052805f81526020015f67ffffffffffffffff1681526020016133f66133fc565b81525090565b60405180604001604052805f81526020015f81525090565b5f604051905090565b5f5ffd5b5f5ffd5b5f73ffffffffffffffffffffffffffffffffffffffff82169050919050565b5f61344e82613425565b9050919050565b61345e81613444565b8114613468575f5ffd5b50565b5f8135905061347981613455565b92915050565b5f819050919050565b6134918161347f565b811461349b575f5ffd5b50565b5f813590506134ac81613488565b92915050565b5f5f604083850312156134c8576134c761341d565b5b5f6134d58582860161346b565b92505060206134e68582860161349e565b9150509250929050565b6134f98161347f565b82525050565b5f6020820190506135125f8301846134f0565b92915050565b5f7fffffffff0000000000000000000000000000000000000000000000000000000082169050919050565b61354c81613518565b8114613556575f5ffd5b50565b5f8135905061356781613543565b92915050565b5f602082840312156135825761358161341d565b5b5f61358f84828501613559565b91505092915050565b5f8115159050919050565b6135ac81613598565b82525050565b5f6020820190506135c55f8301846135a3565b92915050565b5f602082840312156135e0576135df61341d565b5b5f6135ed8482850161349e565b91505092915050565b5f81519050919050565b5f82825260208201905092915050565b8281835e5f83830152505050565b5f601f19601f8301169050919050565b5f613638826135f6565b6136428185613600565b9350613652818560208601613610565b61365b8161361e565b840191505092915050565b5f6020820190508181035f83015261367e818461362e565b905092915050565b5f5ffd5b5f6060828403121561369f5761369e613686565b5b81905092915050565b5f819050919050565b6136ba816136a8565b81146136c4575f5ffd5b50565b5f813590506136d5816136b1565b92915050565b5f5ffd5b5f5ffd5b5f5ffd5b5f5f83601f8401126136fc576136fb6136db565b5b8235905067ffffffffffffffff811115613719576137186136df565b5b602083019150836001820283011115613735576137346136e3565b5b9250929050565b5f5f5f5f5f5f5f60e0888a0312156137575761375661341d565b5b5f6137648a828b0161368a565b97505060606137758a828b016136c7565b965050608088013567ffffffffffffffff81111561379657613795613421565b5b6137a28a828b016136e7565b955095505060a06137b58a828b0161346b565b93505060c088013567ffffffffffffffff8111156137d6576137d5613421565b5b6137e28a828b016136e7565b925092505092959891949750929550565b5f67ffffffffffffffff82169050919050565b61380f816137f3565b82525050565b5f6040820190506138285f830185613806565b6138356020830184613806565b9392505050565b5f5ffd5b7f4e487b71000000000000000000000000000000000000000000000000000000005f52604160045260245ffd5b6138768261361e565b810181811067ffffffffffffffff8211171561389557613894613840565b5b80604052505050565b5f6138a7613414565b90506138b3828261386d565b919050565b5f67ffffffffffffffff8211156138d2576138d1613840565b5b6138db8261361e565b9050602081019050919050565b828183375f83830152505050565b5f613908613903846138b8565b61389e565b9050828152602081018484840111156139245761392361383c565b5b61392f8482856138e8565b509392505050565b5f82601f83011261394b5761394a6136db565b5b813561395b8482602086016138f6565b91505092915050565b5f67ffffffffffffffff82111561397e5761397d613840565b5b602082029050602081019050919050565b5f6139a161399c84613964565b61389e565b905080838252602082019050602084028301858111156139c4576139c36136e3565b5b835b818110156139ed57806139d9888261346b565b8452602084019350506020810190506139c6565b5050509392505050565b5f82601f830112613a0b57613a0a6136db565b5b8135613a1b84826020860161398f565b91505092915050565b5f67ffffffffffffffff821115613a3e57613a3d613840565b5b602082029050602081019050919050565b5f613a61613a5c84613a24565b61389e565b90508083825260208201905060208402830185811115613a8457613a836136e3565b5b835b81811015613aad5780613a99888261349e565b845260208401935050602081019050613a86565b5050509392505050565b5f82601f830112613acb57613aca6136db565b5b8135613adb848260208601613a4f565b91505092915050565b5f5f5f5f60808587031215613afc57613afb61341d565b5b5f85013567ffffffffffffffff811115613b1957613b18613421565b5b613b2587828801613937565b9450506020613b368782880161349e565b935050604085013567ffffffffffffffff811115613b5757613b56613421565b5b613b63878288016139f7565b925050606085013567ffffffffffffffff811115613b8457613b83613421565b5b613b9087828801613ab7565b91505092959194509250565b5f67ffffffffffffffff821115613bb657613bb5613840565b5b613bbf8261361e565b9050602081019050919050565b5f613bde613bd984613b9c565b61389e565b905082815260208101848484011115613bfa57613bf961383c565b5b613c058482856138e8565b509392505050565b5f82601f830112613c2157613c206136db565b5b8135613c31848260208601613bcc565b91505092915050565b5f5f5f5f5f60a08688031215613c5357613c5261341d565b5b5f613c608882890161346b565b9550506020613c718882890161346b565b945050604086013567ffffffffffffffff811115613c9257613c91613421565b5b613c9e88828901613ab7565b935050606086013567ffffffffffffffff811115613cbf57613cbe613421565b5b613ccb88828901613ab7565b925050608086013567ffffffffffffffff811115613cec57613ceb613421565b5b613cf888828901613c0d565b9150509295509295909350565b5f63ffffffff82169050919050565b613d1d81613d05565b8114613d27575f5ffd5b50565b5f81359050613d3881613d14565b92915050565b5f5f60408385031215613d5457613d5361341d565b5b5f613d6185828601613d2a565b9250506020613d72858286016136c7565b9150509250929050565b5f5f5f5f60608587031215613d9457613d9361341d565b5b5f613da187828801613d2a565b9450506020613db28782880161349e565b935050604085013567ffffffffffffffff811115613dd357613dd2613421565b5b613ddf878288016136e7565b925092505092959194509250565b613df6816136a8565b82525050565b613e05816137f3565b82525050565b613e148161347f565b82525050565b604082015f820151613e2e5f850182613e0b565b506020820151613e416020850182613e0b565b50505050565b608082015f820151613e5b5f850182613ded565b506020820151613e6e6020850182613dfc565b506040820151613e816040850182613e1a565b50505050565b5f608082019050613e9a5f830184613e47565b92915050565b5f819050919050565b5f613ec3613ebe613eb984613425565b613ea0565b613425565b9050919050565b5f613ed482613ea9565b9050919050565b5f613ee582613eca565b9050919050565b613ef581613edb565b82525050565b5f602082019050613f0e5f830184613eec565b92915050565b5f5f60408385031215613f2a57613f2961341d565b5b5f83013567ffffffffffffffff811115613f4757613f46613421565b5b613f53858286016139f7565b925050602083013567ffffffffffffffff811115613f7457613f73613421565b5b613f8085828601613ab7565b9150509250929050565b5f81519050919050565b5f82825260208201905092915050565b5f819050602082019050919050565b5f613fbe8383613e0b565b60208301905092915050565b5f602082019050919050565b5f613fe082613f8a565b613fea8185613f94565b9350613ff583613fa4565b805f5b8381101561402557815161400c8882613fb3565b975061401783613fca565b925050600181019050613ff8565b5085935050505092915050565b5f6020820190508181035f83015261404a8184613fd6565b905092915050565b5f61405c82613eca565b9050919050565b61406c81614052565b82525050565b5f6020820190506140855f830184614063565b92915050565b5f602082840312156140a05761409f61341d565b5b5f6140ad8482850161346b565b91505092915050565b5f6020820190506140c95f830184613806565b92915050565b5f5f5f5f60a085870312156140e7576140e661341d565b5b5f6140f48782880161368a565b945050606085013567ffffffffffffffff81111561411557614114613421565b5b614121878288016136e7565b935093505060806141348782880161346b565b91505092959194509250565b61414981613444565b82525050565b5f6020820190506141625f830184614140565b92915050565b61417181613598565b811461417b575f5ffd5b50565b5f8135905061418c81614168565b92915050565b5f5f604083850312156141a8576141a761341d565b5b5f6141b58582860161346b565b92505060206141c68582860161417e565b9150509250929050565b5f602082840312156141e5576141e461341d565b5b5f6141f284828501613d2a565b91505092915050565b614204816136a8565b82525050565b5f60208201905061421d5f8301846141fb565b92915050565b5f5f604083850312156142395761423861341d565b5b5f6142468582860161346b565b92505060206142578582860161346b565b9150509250929050565b5f5f5f5f5f60a0868803121561427a5761427961341d565b5b5f6142878882890161346b565b95505060206142988882890161346b565b94505060406142a98882890161349e565b93505060606142ba8882890161349e565b925050608086013567ffffffffffffffff8111156142db576142da613421565b5b6142e788828901613c0d565b9150509295509295909350565b5f60c0820190506143075f8301896134f0565b6143146020830188614140565b6143216040830187614140565b8181036060830152614333818661362e565b905061434260808301856134f0565b61434f60a08301846135a3565b979650505050505050565b5f6060828403121561436f5761436e61341d565b5b5f61437c8482850161368a565b91505092915050565b7f4e487b71000000000000000000000000000000000000000000000000000000005f52602260045260245ffd5b5f60028204905060018216806143c957607f821691505b6020821081036143dc576143db614385565b5b50919050565b6143eb81613d05565b82525050565b5f6040820190506144045f8301856143e2565b61441160208301846141fb565b9392505050565b7f4e487b71000000000000000000000000000000000000000000000000000000005f52601160045260245ffd5b5f61444f8261347f565b91507fffffffffffffffffffffffffffffffffffffffffffffffffffffffffffffffff820361448157614480614418565b5b600182019050919050565b5f81519050919050565b5f82825260208201905092915050565b5f819050602082019050919050565b6144be81613444565b82525050565b5f6144cf83836144b5565b60208301905092915050565b5f602082019050919050565b5f6144f18261448c565b6144fb8185614496565b9350614506836144a6565b805f5b8381101561453657815161451d88826144c4565b9750614528836144db565b925050600181019050614509565b5085935050505092915050565b5f6040820190508181035f83015261455b81856144e7565b9050818103602083015261456f8184613fd6565b90509392505050565b5f819050815f5260205f209050919050565b5f6020601f8301049050919050565b5f82821b905092915050565b5f600883026145d47fffffffffffffffffffffffffffffffffffffffffffffffffffffffffffffffff82614599565b6145de8683614599565b95508019841693508086168417925050509392505050565b5f61461061460b6146068461347f565b613ea0565b61347f565b9050919050565b5f819050919050565b614629836145f6565b61463d61463582614617565b8484546145a5565b825550505050565b5f5f905090565b614654614645565b61465f818484614620565b505050565b5b81811015614682576146775f8261464c565b600181019050614665565b5050565b601f8211156146c75761469881614578565b6146a18461458a565b810160208510156146b0578190505b6146c46146bc8561458a565b830182614664565b50505b505050565b5f82821c905092915050565b5f6146e75f19846008026146cc565b1980831691505092915050565b5f6146ff83836146d8565b9150826002028217905092915050565b614718826135f6565b67ffffffffffffffff81111561473157614730613840565b5b61473b82546143b2565b614746828285614686565b5f60209050601f831160018114614777575f8415614765578287015190505b61476f85826146f4565b8655506147d6565b601f19841661478586614578565b5f5b828110156147ac57848901518255600182019150602085019450602081019050614787565b868310156147c957848901516147c5601f8916826146d8565b8355505b6001600288020188555050505b505050505050565b5f6040820190506147f15f830185614140565b6147fe60208301846134f0565b9392505050565b5f6040820190506148185f830185614140565b6148256020830184614140565b9392505050565b7f436f6c6c656374696f6e20646f6573206e6f74206578697374000000000000005f82015250565b5f614860601983613600565b915061486b8261482c565b602082019050919050565b5f6020820190508181035f83015261488d81614854565b9050919050565b7f4e6f7420746865206172746973740000000000000000000000000000000000005f82015250565b5f6148c8600e83613600565b91506148d382614894565b602082019050919050565b5f6020820190508181035f8301526148f5816148bc565b9050919050565b5f8154614908816143b2565b6149128186613600565b9450600182165f811461492c576001811461494257614974565b60ff198316865281151560200286019350614974565b61494b85614578565b5f5b8381101561496c5781548189015260018201915060208101905061494d565b808801955050505b50505092915050565b5f6080820190506149905f8301876134f0565b61499d6020830186614140565b6149aa60408301856134f0565b81810360608301526149bc81846148fc565b905095945050505050565b5f6060820190506149da5f8301866143e2565b6149e760208301856134f0565b6149f460408301846141fb565b949350505050565b5f604082019050614a0f5f8301856134f0565b614a1c60208301846134f0565b9392505050565b7f4e487b71000000000000000000000000000000000000000000000000000000005f52603260045260245ffd5b7f5a65726f206164647265737300000000000000000000000000000000000000005f82015250565b5f614a84600c83613600565b9150614a8f82614a50565b602082019050919050565b5f6020820190508181035f830152614ab181614a78565b9050919050565b7f4e6f6e6578697374656e7420636f6c6c656374696f6e000000000000000000005f82015250565b5f614aec601683613600565b9150614af782614ab8565b602082019050919050565b5f6020820190508181035f830152614b1981614ae0565b9050919050565b7f536f6c64204f75740000000000000000000000000000000000000000000000005f82015250565b5f614b54600883613600565b9150614b5f82614b20565b602082019050919050565b5f6020820190508181035f830152614b8181614b48565b9050919050565b7f416c726561647920436f6c6c65637465640000000000000000000000000000005f82015250565b5f614bbc601183613600565b9150614bc782614b88565b602082019050919050565b5f6020820190508181035f830152614be981614bb0565b9050919050565b5f614bfa8261347f565b9150614c058361347f565b9250828203905081811115614c1d57614c1c614418565b5b92915050565b5f614c2d8261347f565b9150614c388361347f565b9250828202614c468161347f565b91508282048414831517614c5d57614c5c614418565b5b5092915050565b7f4e487b71000000000000000000000000000000000000000000000000000000005f52601260045260245ffd5b5f614c9b8261347f565b9150614ca68361347f565b925082614cb657614cb5614c64565b5b828204905092915050565b5f602082019050614cd45f8301846143e2565b92915050565b5f614ce482613425565b9050919050565b614cf481614cda565b8114614cfe575f5ffd5b50565b5f81359050614d0f81614ceb565b92915050565b5f5f5f5f60808587031215614d2d57614d2c61341d565b5b5f614d3a8782880161349e565b9450506020614d4b87828801614d01565b9350506040614d5c8782880161349e565b925050606085013567ffffffffffffffff811115614d7d57614d7c613421565b5b614d8987828801613937565b91505092959194509250565b5f614d9f8261347f565b9150614daa8361347f565b9250828201905080821115614dc257614dc1614418565b5b92915050565b5f606082019050614ddb5f830186614140565b614de86020830185614140565b614df560408301846134f0565b949350505050565b614e0681613d05565b82525050565b5f81519050919050565b5f82825260208201905092915050565b5f614e3082614e0c565b614e3a8185614e16565b9350614e4a818560208601613610565b614e538161361e565b840191505092915050565b614e6781613598565b82525050565b5f60a083015f830151614e825f860182614dfd565b506020830151614e956020860182613ded565b5060408301518482036040860152614ead8282614e26565b91505060608301518482036060860152614ec78282614e26565b9150506080830151614edc6080860182614e5e565b508091505092915050565b5f6040820190508181035f830152614eff8185614e6d565b9050614f0e6020830184614140565b9392505050565b5f5ffd5b5f81519050614f27816136b1565b92915050565b614f36816137f3565b8114614f40575f5ffd5b50565b5f81519050614f5181614f2d565b92915050565b5f81519050614f6581613488565b92915050565b5f60408284031215614f8057614f7f614f15565b5b614f8a604061389e565b90505f614f9984828501614f57565b5f830152506020614fac84828501614f57565b60208301525092915050565b5f60808284031215614fcd57614fcc614f15565b5b614fd7606061389e565b90505f614fe684828501614f19565b5f830152506020614ff984828501614f43565b602083015250604061500d84828501614f6b565b60408301525092915050565b5f6080828403121561502e5761502d61341d565b5b5f61503b84828501614fb8565b91505092915050565b5f604082840312156150595761505861341d565b5b5f61506684828501614f6b565b91505092915050565b5f8151905061507d81613455565b92915050565b5f602082840312156150985761509761341d565b5b5f6150a58482850161506f565b91505092915050565b5f6080820190506150c15f830187614140565b6150ce60208301866134f0565b6150db60408301856134f0565b6150e860608301846134f0565b95945050505050565b5f6040820190508181035f8301526151098185613fd6565b9050818103602083015261511d8184613fd6565b90509392505050565b5f82825260208201905092915050565b5f61514082614e0c565b61514a8185615126565b935061515a818560208601613610565b6151638161361e565b840191505092915050565b5f60a0820190506151815f830188614140565b61518e6020830187614140565b61519b60408301866134f0565b6151a860608301856134f0565b81810360808301526151ba8184615136565b90509695505050505050565b5f815190506151d481613543565b92915050565b5f602082840312156151ef576151ee61341d565b5b5f6151fc848285016151c6565b91505092915050565b5f60a0820190506152185f830188614140565b6152256020830187614140565b81810360408301526152378186613fd6565b9050818103606083015261524b8185613fd6565b9050818103608083015261525f8184615136565b9050969550505050505056fea264697066735822122071eba6fc6874698e6e429b5a4f5d593237c3bedbbddd1710d92ed37c2b60388b64736f6c634300081e0033608060405234801561000f575f5ffd5b5060015f8190555061002561002a60201b60201c565b6101a5565b5f61003961012860201b60201c565b9050805f0160089054906101000a900460ff1615610083576040517ff92ee8a900000000000000000000000000000000000000000000000000000000815260040160405180910390fd5b67ffffffffffffffff8016815f015f9054906101000a900467ffffffffffffffff1667ffffffffffffffff16146101255767ffffffffffffffff815f015f6101000a81548167ffffffffffffffff021916908367ffffffffffffffff1602179055507fc7f505b2f371ae2175ee4913f4499e1f2633a7b5936321eed1cdaeb6115181d267ffffffffffffffff60405161011c919061018c565b60405180910390a15b50565b5f5f61013861014160201b60201c565b90508091505090565b5f7ff0c57e16840df040f15088dc2f81fe391c3923bec73e23a9662efc9c229c6a005f1b905090565b5f67ffffffffffffffff82169050919050565b6101868161016a565b82525050565b5f60208201905061019f5f83018461017d565b92915050565b611b86806101b25f395ff3fe608060405260043610610094575f3560e01c80639852595c116100585780639852595c146101ca578063cdd9ac3814610206578063ce7c2ac214610242578063e33b7de31461027e578063f9a76be2146102a8576100d4565b806319165587146100d857806319766c48146101005780633a98ef391461013c57806363037b0c146101665780637fbbe46f146101a2576100d4565b366100d4577f6ef95f06320e7a25a04a175ca677b7052bdd97131872c2192525a629f51be77033346040516100ca929190611097565b60405180910390a1005b5f5ffd5b3480156100e3575f5ffd5b506100fe60048036038101906100f9919061110a565b6102d0565b005b34801561010b575f5ffd5b5061012660048036038101906101219190611170565b6105a5565b604051610133919061119b565b60405180910390f35b348015610147575f5ffd5b506101506105ba565b60405161015d919061119b565b60405180910390f35b348015610171575f5ffd5b5061018c600480360381019061018791906111de565b6105c0565b6040516101999190611209565b60405180910390f35b3480156101ad575f5ffd5b506101c860048036038101906101c3919061145c565b6105fb565b005b3480156101d5575f5ffd5b506101f060048036038101906101eb91906114d2565b610855565b6040516101fd919061119b565b60405180910390f35b348015610211575f5ffd5b5061022c600480360381019061022791906114fd565b61086a565b604051610239919061119b565b60405180910390f35b34801561024d575f5ffd5b50610268600480360381019061026391906114d2565b61088a565b604051610275919061119b565b60405180910390f35b348015610289575f5ffd5b5061029261089f565b60405161029f919061119b565b60405180910390f35b3480156102b3575f5ffd5b506102ce60048036038101906102c991906114fd565b6108a5565b005b6102d8610c77565b5f60035f8373ffffffffffffffffffffffffffffffffffffffff1673ffffffffffffffffffffffffffffffffffffffff1681526020019081526020015f205411610357576040517f08c379a000000000000000000000000000000000000000000000000000000000815260040161034e90611595565b60405180910390fd5b5f6002544761036691906115e0565b90505f60045f8473ffffffffffffffffffffffffffffffffffffffff1673ffffffffffffffffffffffffffffffffffffffff1681526020019081526020015f205460015460035f8673ffffffffffffffffffffffffffffffffffffffff1673ffffffffffffffffffffffffffffffffffffffff1681526020019081526020015f2054846103f39190611613565b6103fd9190611681565b61040791906116b1565b90505f811161044b576040517f08c379a00000000000000000000000000000000000000000000000000000000081526004016104429061172e565b60405180910390fd5b8060045f8573ffffffffffffffffffffffffffffffffffffffff1673ffffffffffffffffffffffffffffffffffffffff1681526020019081526020015f205f82825461049791906115e0565b925050819055508060025f8282546104af91906115e0565b925050819055505f8373ffffffffffffffffffffffffffffffffffffffff16826040516104db90611779565b5f6040518083038185875af1925050503d805f8114610515576040519150601f19603f3d011682016040523d82523d5f602084013e61051a565b606091505b505090508061055e576040517f08c379a0000000000000000000000000000000000000000000000000000000008152600401610555906117d7565b60405180910390fd5b7fdf20fd1e76bc69d672e4814fafb2c449bba3a5369d8359adf9e05e6fde87b056848360405161058f929190611850565b60405180910390a15050506105a2610cbb565b50565b6006602052805f5260405f205f915090505481565b60015481565b600581815481106105cf575f80fd5b905f5260205f20015f915054906101000a900473ffffffffffffffffffffffffffffffffffffffff1681565b5f610604610cc4565b90505f815f0160089054906101000a900460ff161590505f825f015f9054906101000a900467ffffffffffffffff1690505f5f8267ffffffffffffffff1614801561064c5750825b90505f60018367ffffffffffffffff1614801561067f57505f3073ffffffffffffffffffffffffffffffffffffffff163b145b90508115801561068d575080155b156106c4576040517ff92ee8a900000000000000000000000000000000000000000000000000000000815260040160405180910390fd5b6001855f015f6101000a81548167ffffffffffffffff021916908367ffffffffffffffff1602179055508315610711576001855f0160086101000a81548160ff0219169083151502179055505b8551875114610755576040517f08c379a000000000000000000000000000000000000000000000000000000000815260040161074c906118c1565b60405180910390fd5b5f875111610798576040517f08c379a000000000000000000000000000000000000000000000000000000000815260040161078f90611929565b60405180910390fd5b5f5f90505b87518110156107f1576107e48882815181106107bc576107bb611947565b5b60200260200101518883815181106107d7576107d6611947565b5b6020026020010151610cd7565b808060010191505061079d565b50831561084c575f855f0160086101000a81548160ff0219169083151502179055507fc7f505b2f371ae2175ee4913f4499e1f2633a7b5936321eed1cdaeb6115181d2600160405161084391906119c0565b60405180910390a15b50505050505050565b6004602052805f5260405f205f915090505481565b6007602052815f5260405f20602052805f5260405f205f91509150505481565b6003602052805f5260405f205f915090505481565b60025481565b6108ad610c77565b5f60035f8373ffffffffffffffffffffffffffffffffffffffff1673ffffffffffffffffffffffffffffffffffffffff1681526020019081526020015f20541161092c576040517f08c379a000000000000000000000000000000000000000000000000000000000815260040161092390611595565b60405180910390fd5b5f60065f8473ffffffffffffffffffffffffffffffffffffffff1673ffffffffffffffffffffffffffffffffffffffff1681526020019081526020015f20548373ffffffffffffffffffffffffffffffffffffffff166370a08231306040518263ffffffff1660e01b81526004016109a49190611209565b602060405180830381865afa1580156109bf573d5f5f3e3d5ffd5b505050506040513d601f19601f820116820180604052508101906109e391906119ed565b6109ed91906115e0565b90505f60075f8573ffffffffffffffffffffffffffffffffffffffff1673ffffffffffffffffffffffffffffffffffffffff1681526020019081526020015f205f8473ffffffffffffffffffffffffffffffffffffffff1673ffffffffffffffffffffffffffffffffffffffff1681526020019081526020015f205460015460035f8673ffffffffffffffffffffffffffffffffffffffff1673ffffffffffffffffffffffffffffffffffffffff1681526020019081526020015f205484610ab59190611613565b610abf9190611681565b610ac991906116b1565b90505f8111610b0d576040517f08c379a0000000000000000000000000000000000000000000000000000000008152600401610b049061172e565b60405180910390fd5b8060075f8673ffffffffffffffffffffffffffffffffffffffff1673ffffffffffffffffffffffffffffffffffffffff1681526020019081526020015f205f8573ffffffffffffffffffffffffffffffffffffffff1673ffffffffffffffffffffffffffffffffffffffff1681526020019081526020015f205f828254610b9491906115e0565b925050819055508060065f8673ffffffffffffffffffffffffffffffffffffffff1673ffffffffffffffffffffffffffffffffffffffff1681526020019081526020015f205f828254610be791906115e0565b92505081905550610c1983828673ffffffffffffffffffffffffffffffffffffffff16610efd9092919063ffffffff16565b8373ffffffffffffffffffffffffffffffffffffffff167f3be5b7a71e84ed12875d241991c70855ac5817d847039e17a9d895c1ceb0f18a8483604051610c61929190611097565b60405180910390a25050610c73610cbb565b5050565b60025f5403610cb2576040517f3ee5aeb500000000000000000000000000000000000000000000000000000000815260040160405180910390fd5b60025f81905550565b60015f81905550565b5f5f610cce610f7c565b90508091505090565b5f73ffffffffffffffffffffffffffffffffffffffff168273ffffffffffffffffffffffffffffffffffffffff1603610d45576040517f08c379a0000000000000000000000000000000000000000000000000000000008152600401610d3c90611a62565b60405180910390fd5b5f8111610d87576040517f08c379a0000000000000000000000000000000000000000000000000000000008152600401610d7e90611aca565b60405180910390fd5b5f60035f8473ffffffffffffffffffffffffffffffffffffffff1673ffffffffffffffffffffffffffffffffffffffff1681526020019081526020015f205414610e06576040517f08c379a0000000000000000000000000000000000000000000000000000000008152600401610dfd90611b32565b60405180910390fd5b600582908060018154018082558091505060019003905f5260205f20015f9091909190916101000a81548173ffffffffffffffffffffffffffffffffffffffff021916908373ffffffffffffffffffffffffffffffffffffffff1602179055508060035f8473ffffffffffffffffffffffffffffffffffffffff1673ffffffffffffffffffffffffffffffffffffffff1681526020019081526020015f20819055508060015f828254610eb991906115e0565b925050819055507f40c340f65e17194d14ddddb073d3c9f888e3cb52b5aae0c6c7706b4fbc905fac8282604051610ef1929190611097565b60405180910390a15050565b610f77838473ffffffffffffffffffffffffffffffffffffffff1663a9059cbb8585604051602401610f30929190611097565b604051602081830303815290604052915060e01b6020820180517bffffffffffffffffffffffffffffffffffffffffffffffffffffffff8381831617835250505050610fa5565b505050565b5f7ff0c57e16840df040f15088dc2f81fe391c3923bec73e23a9662efc9c229c6a005f1b905090565b5f5f60205f8451602086015f885af180610fc4576040513d5f823e3d81fd5b3d92505f519150505f8214610fdd576001811415610ff8565b5f8473ffffffffffffffffffffffffffffffffffffffff163b145b1561103a57836040517f5274afe70000000000000000000000000000000000000000000000000000000081526004016110319190611209565b60405180910390fd5b50505050565b5f73ffffffffffffffffffffffffffffffffffffffff82169050919050565b5f61106982611040565b9050919050565b6110798161105f565b82525050565b5f819050919050565b6110918161107f565b82525050565b5f6040820190506110aa5f830185611070565b6110b76020830184611088565b9392505050565b5f604051905090565b5f5ffd5b5f5ffd5b5f6110d982611040565b9050919050565b6110e9816110cf565b81146110f3575f5ffd5b50565b5f81359050611104816110e0565b92915050565b5f6020828403121561111f5761111e6110c7565b5b5f61112c848285016110f6565b91505092915050565b5f61113f8261105f565b9050919050565b61114f81611135565b8114611159575f5ffd5b50565b5f8135905061116a81611146565b92915050565b5f60208284031215611185576111846110c7565b5b5f6111928482850161115c565b91505092915050565b5f6020820190506111ae5f830184611088565b92915050565b6111bd8161107f565b81146111c7575f5ffd5b50565b5f813590506111d8816111b4565b92915050565b5f602082840312156111f3576111f26110c7565b5b5f611200848285016111ca565b91505092915050565b5f60208201905061121c5f830184611070565b92915050565b5f5ffd5b5f601f19601f8301169050919050565b7f4e487b71000000000000000000000000000000000000000000000000000000005f52604160045260245ffd5b61126c82611226565b810181811067ffffffffffffffff8211171561128b5761128a611236565b5b80604052505050565b5f61129d6110be565b90506112a98282611263565b919050565b5f67ffffffffffffffff8211156112c8576112c7611236565b5b602082029050602081019050919050565b5f5ffd5b6112e68161105f565b81146112f0575f5ffd5b50565b5f81359050611301816112dd565b92915050565b5f611319611314846112ae565b611294565b9050808382526020820190506020840283018581111561133c5761133b6112d9565b5b835b81811015611365578061135188826112f3565b84526020840193505060208101905061133e565b5050509392505050565b5f82601f83011261138357611382611222565b5b8135611393848260208601611307565b91505092915050565b5f67ffffffffffffffff8211156113b6576113b5611236565b5b602082029050602081019050919050565b5f6113d96113d48461139c565b611294565b905080838252602082019050602084028301858111156113fc576113fb6112d9565b5b835b81811015611425578061141188826111ca565b8452602084019350506020810190506113fe565b5050509392505050565b5f82601f83011261144357611442611222565b5b81356114538482602086016113c7565b91505092915050565b5f5f60408385031215611472576114716110c7565b5b5f83013567ffffffffffffffff81111561148f5761148e6110cb565b5b61149b8582860161136f565b925050602083013567ffffffffffffffff8111156114bc576114bb6110cb565b5b6114c88582860161142f565b9150509250929050565b5f602082840312156114e7576114e66110c7565b5b5f6114f4848285016112f3565b91505092915050565b5f5f60408385031215611513576115126110c7565b5b5f6115208582860161115c565b9250506020611531858286016112f3565b9150509250929050565b5f82825260208201905092915050565b7f4e6f2073686172657300000000000000000000000000000000000000000000005f82015250565b5f61157f60098361153b565b915061158a8261154b565b602082019050919050565b5f6020820190508181035f8301526115ac81611573565b9050919050565b7f4e487b71000000000000000000000000000000000000000000000000000000005f52601160045260245ffd5b5f6115ea8261107f565b91506115f58361107f565b925082820190508082111561160d5761160c6115b3565b5b92915050565b5f61161d8261107f565b91506116288361107f565b92508282026116368161107f565b9150828204841483151761164d5761164c6115b3565b5b5092915050565b7f4e487b71000000000000000000000000000000000000000000000000000000005f52601260045260245ffd5b5f61168b8261107f565b91506116968361107f565b9250826116a6576116a5611654565b5b828204905092915050565b5f6116bb8261107f565b91506116c68361107f565b92508282039050818111156116de576116dd6115b3565b5b92915050565b7f4e6f7420647565207061796d656e7400000000000000000000000000000000005f82015250565b5f611718600f8361153b565b9150611723826116e4565b602082019050919050565b5f6020820190508181035f8301526117458161170c565b9050919050565b5f81905092915050565b50565b5f6117645f8361174c565b915061176f82611756565b5f82019050919050565b5f61178382611759565b9150819050919050565b7f5472616e73666572206661696c656400000000000000000000000000000000005f82015250565b5f6117c1600f8361153b565b91506117cc8261178d565b602082019050919050565b5f6020820190508181035f8301526117ee816117b5565b9050919050565b5f819050919050565b5f61181861181361180e84611040565b6117f5565b611040565b9050919050565b5f611829826117fe565b9050919050565b5f61183a8261181f565b9050919050565b61184a81611830565b82525050565b5f6040820190506118635f830185611841565b6118706020830184611088565b9392505050565b7f4c656e677468206d69736d6174636800000000000000000000000000000000005f82015250565b5f6118ab600f8361153b565b91506118b682611877565b602082019050919050565b5f6020820190508181035f8301526118d88161189f565b9050919050565b7f4e6f2070617965657300000000000000000000000000000000000000000000005f82015250565b5f61191360098361153b565b915061191e826118df565b602082019050919050565b5f6020820190508181035f83015261194081611907565b9050919050565b7f4e487b71000000000000000000000000000000000000000000000000000000005f52603260045260245ffd5b5f819050919050565b5f67ffffffffffffffff82169050919050565b5f6119aa6119a56119a084611974565b6117f5565b61197d565b9050919050565b6119ba81611990565b82525050565b5f6020820190506119d35f8301846119b1565b92915050565b5f815190506119e7816111b4565b92915050565b5f60208284031215611a0257611a016110c7565b5b5f611a0f848285016119d9565b91505092915050565b7f5a65726f206164647265737300000000000000000000000000000000000000005f82015250565b5f611a4c600c8361153b565b9150611a5782611a18565b602082019050919050565b5f6020820190508181035f830152611a7981611a40565b9050919050565b7f5a65726f207368617265730000000000000000000000000000000000000000005f82015250565b5f611ab4600b8361153b565b9150611abf82611a80565b602082019050919050565b5f6020820190508181035f830152611ae181611aa8565b9050919050565b7f4475706c696361746520706179656500000000000000000000000000000000005f82015250565b5f611b1c600f8361153b565b9150611b2782611ae8565b602082019050919050565b5f6020820190508181035f830152611b4981611b10565b905091905056fea264697066735822122067e94e35519091f53f77122a571deeb198feec23a69ab799cfae2354b4b4cf9564736f6c634300081e0033","linkReferences":{}},"methodIdentifiers":{"BPS_DENOMINATOR()":"e1a45218","MINT_PRICE()":"c002d23d","PRIMARY_ARTIST_BPS()":"0331582e","allowInitializePath((uint32,bytes32,uint64))":"ff7bd03d","balanceOf(address,uint256)":"00fdd58e","balanceOfBatch(address[],uint256[])":"4e1273f4","botFee()":"bf862391","collectionMinted(uint256)":"d7423031","collections(uint256)":"fdbda0ec","endpoint()":"5e280f11","isApprovedForAll(address,address)":"e985e9c5","isComposeMsgSender((uint32,bytes32,uint64),bytes,address)":"82413eac","lzReceive((uint32,bytes32,uint64),bytes32,bytes,address,bytes)":"13137d65","mint(uint256)":"a0712d68","nextCollectionId()":"e77d6f7c","nextNonce(uint32,bytes32)":"7d25a05e","oAppVersion()":"17442b70","owner()":"8da5cb5b","peers(uint32)":"bb0b6a53","publish(string,uint256,address[],uint256[])":"1b62bd14","quoteSyncSong(uint32,uint256,bytes)":"8753497b","renounceOwnership()":"715018a6","safeBatchTransferFrom(address,address,uint256[],uint256[],bytes)":"2eb2c2d6","safeTransferFrom(address,address,uint256,uint256,bytes)":"f242432a","setApprovalForAll(address,bool)":"a22cb465","setBotFee(uint256)":"261b0ca4","setDelegate(address)":"ca5eb5e1","setPeer(uint32,bytes32)":"3400288b","splitterImplementation()":"e63db9b2","supportsInterface(bytes4)":"01ffc9a7","syncSong(uint32,uint256,bytes)":"37625a8f","tokenToCollection(uint256)":"195f78ae","transferOwnership(address)":"f2fde38b","updateSplitterImplementation(address)":"62a80f7c","uri(uint256)":"0e89341c","usdc()":"3e413bee"},"id":0}