{"abi":[{"type":"constructor","inputs":[{"name":"_usdc","type":"address","internalType":"address"}],"stateMutability":"nonpayable"},{"type":"function","name":"BPS_DENOMINATOR","inputs":[],"outputs":[{"name":"","type":"uint256","internalType":"uint256"}],"stateMutability":"view"},{"type":"function","name":"PRIMARY_ARTIST_BPS","inputs":[],"outputs":[{"name":"","type":"uint256","internalType":"uint256"}],"stateMutability":"view"},{"type":"function","name":"balanceOf","inputs":[{"name":"account","type":"address","internalType":"address"},{"name":"id","type":"uint256","internalType":"uint256"}],"outputs":[{"name":"","type":"uint256","internalType":"uint256"}],"stateMutability":"view"},{"type":"function","name":"balanceOfBatch","inputs":[{"name":"accounts","type":"address[]","internalType":"address[]"},{"name":"ids","type":"uint256[]","internalType":"uint256[]"}],"outputs":[{"name":"","type":"uint256[]","internalType":"uint256[]"}],"stateMutability":"view"},{"type":"function","name":"collectionMinted","inputs":[{"name":"","type":"uint256","internalType":"uint256"}],"outputs":[{"name":"","type":"uint256","internalType":"uint256"}],"stateMutability":"view"},{"type":"function","name":"collections","inputs":[{"name":"","type":"uint256","internalType":"uint256"}],"outputs":[{"name":"id","type":"uint256","internalType":"uint256"},{"name":"artist","type":"address","internalType":"address"},{"name":"price","type":"uint256","internalType":"uint256"},{"name":"splitter","type":"address","internalType":"address"},{"name":"baseUri","type":"string","internalType":"string"},{"name":"exists","type":"bool","internalType":"bool"}],"stateMutability":"view"},{"type":"function","name":"isApprovedForAll","inputs":[{"name":"account","type":"address","internalType":"address"},{"name":"operator","type":"address","internalType":"address"}],"outputs":[{"name":"","type":"bool","internalType":"bool"}],"stateMutability":"view"},{"type":"function","name":"mint","inputs":[{"name":"_collectionId","type":"uint256","internalType":"uint256"}],"outputs":[],"stateMutability":"nonpayable"},{"type":"function","name":"nextCollectionId","inputs":[],"outputs":[{"name":"","type":"uint256","internalType":"uint256"}],"stateMutability":"view"},{"type":"function","name":"owner","inputs":[],"outputs":[{"name":"","type":"address","internalType":"address"}],"stateMutability":"view"},{"type":"function","name":"publish","inputs":[{"name":"_baseUri","type":"string","internalType":"string"},{"name":"_price","type":"uint256","internalType":"uint256"},{"name":"_collaborators","type":"address[]","internalType":"address[]"},{"name":"_shares","type":"uint256[]","internalType":"uint256[]"}],"outputs":[{"name":"","type":"uint256","internalType":"uint256"}],"stateMutability":"nonpayable"},{"type":"function","name":"renounceOwnership","inputs":[],"outputs":[],"stateMutability":"nonpayable"},{"type":"function","name":"safeBatchTransferFrom","inputs":[{"name":"from","type":"address","internalType":"address"},{"name":"to","type":"address","internalType":"address"},{"name":"ids","type":"uint256[]","internalType":"uint256[]"},{"name":"values","type":"uint256[]","internalType":"uint256[]"},{"name":"data","type":"bytes","internalType":"bytes"}],"outputs":[],"stateMutability":"nonpayable"},{"type":"function","name":"safeTransferFrom","inputs":[{"name":"from","type":"address","internalType":"address"},{"name":"to","type":"address","internalType":"address"},{"name":"id","type":"uint256","internalType":"uint256"},{"name":"value","type":"uint256","internalType":"uint256"},{"name":"data","type":"bytes","internalType":"bytes"}],"outputs":[],"stateMutability":"nonpayable"},{"type":"function","name":"setApprovalForAll","inputs":[{"name":"operator","type":"address","internalType":"address"},{"name":"approved","type":"bool","internalType":"bool"}],"outputs":[],"stateMutability":"nonpayable"},{"type":"function","name":"splitterImplementation","inputs":[],"outputs":[{"name":"","type":"address","internalType":"address"}],"stateMutability":"view"},{"type":"function","name":"supportsInterface","inputs":[{"name":"interfaceId","type":"bytes4","internalType":"bytes4"}],"outputs":[{"name":"","type":"bool","internalType":"bool"}],"stateMutability":"view"},{"type":"function","name":"tokenToCollection","inputs":[{"name":"","type":"uint256","internalType":"uint256"}],"outputs":[{"name":"","type":"uint256","internalType":"uint256"}],"stateMutability":"view"},{"type":"function","name":"transferOwnership","inputs":[{"name":"newOwner","type":"address","internalType":"address"}],"outputs":[],"stateMutability":"nonpayable"},{"type":"function","name":"uri","inputs":[{"name":"tokenId","type":"uint256","internalType":"uint256"}],"outputs":[{"name":"","type":"string","internalType":"string"}],"stateMutability":"view"},{"type":"function","name":"usdc","inputs":[],"outputs":[{"name":"","type":"address","internalType":"contract IERC20"}],"stateMutability":"view"},{"type":"event","name":"ApprovalForAll","inputs":[{"name":"account","type":"address","indexed":true,"internalType":"address"},{"name":"operator","type":"address","indexed":true,"internalType":"address"},{"name":"approved","type":"bool","indexed":false,"internalType":"bool"}],"anonymous":false},{"type":"event","name":"CollectionPublished","inputs":[{"name":"collectionId","type":"uint256","indexed":true,"internalType":"uint256"},{"name":"artist","type":"address","indexed":true,"internalType":"address"},{"name":"splitter","type":"address","indexed":false,"internalType":"address"},{"name":"price","type":"uint256","indexed":false,"internalType":"uint256"}],"anonymous":false},{"type":"event","name":"OwnershipTransferred","inputs":[{"name":"previousOwner","type":"address","indexed":true,"internalType":"address"},{"name":"newOwner","type":"address","indexed":true,"internalType":"address"}],"anonymous":false},{"type":"event","name":"SongMinted","inputs":[{"name":"collectionId","type":"uint256","indexed":true,"internalType":"uint256"},{"name":"tokenId","type":"uint256","indexed":true,"internalType":"uint256"},{"name":"buyer","type":"address","indexed":true,"internalType":"address"}],"anonymous":false},{"type":"event","name":"TransferBatch","inputs":[{"name":"operator","type":"address","indexed":true,"internalType":"address"},{"name":"from","type":"address","indexed":true,"internalType":"address"},{"name":"to","type":"address","indexed":true,"internalType":"address"},{"name":"ids","type":"uint256[]","indexed":false,"internalType":"uint256[]"},{"name":"values","type":"uint256[]","indexed":false,"internalType":"uint256[]"}],"anonymous":false},{"type":"event","name":"TransferSingle","inputs":[{"name":"operator","type":"address","indexed":true,"internalType":"address"},{"name":"from","type":"address","indexed":true,"internalType":"address"},{"name":"to","type":"address","indexed":true,"internalType":"address"},{"name":"id","type":"uint256","indexed":false,"internalType":"uint256"},{"name":"value","type":"uint256","indexed":false,"internalType":"uint256"}],"anonymous":false},{"type":"event","name":"URI","inputs":[{"name":"value","type":"string","indexed":false,"internalType":"string"},{"name":"id","type":"uint256","indexed":true,"internalType":"uint256"}],"anonymous":false},{"type":"error","name":"ERC1155InsufficientBalance","inputs":[{"name":"sender","type":"address","internalType":"address"},{"name":"balance","type":"uint256","internalType":"uint256"},{"name":"needed","type":"uint256","internalType":"uint256"},{"name":"tokenId","type":"uint256","internalType":"uint256"}]},{"type":"error","name":"ERC1155InvalidApprover","inputs":[{"name":"approver","type":"address","internalType":"address"}]},{"type":"error","name":"ERC1155InvalidArrayLength","inputs":[{"name":"idsLength","type":"uint256","internalType":"uint256"},{"name":"valuesLength","type":"uint256","internalType":"uint256"}]},{"type":"error","name":"ERC1155InvalidOperator","inputs":[{"name":"operator","type":"address","internalType":"address"}]},{"type":"error","name":"ERC1155InvalidReceiver","inputs":[{"name":"receiver","type":"address","internalType":"address"}]},{"type":"error","name":"ERC1155InvalidSender","inputs":[{"name":"sender","type":"address","internalType":"address"}]},{"type":"error","name":"ERC1155MissingApprovalForAll","inputs":[{"name":"operator","type":"address","internalType":"address"},{"name":"owner","type":"address","internalType":"address"}]},{"type":"error","name":"FailedDeployment","inputs":[]},{"type":"error","name":"InsufficientBalance","inputs":[{"name":"balance","type":"uint256","internalType":"uint256"},{"name":"needed","type":"uint256","internalType":"uint256"}]},{"type":"error","name":"OwnableInvalidOwner","inputs":[{"name":"owner","type":"address","internalType":"address"}]},{"type":"error","name":"OwnableUnauthorizedAccount","inputs":[{"name":"account","type":"address","internalType":"address"}]},{"type":"error","name":"ReentrancyGuardReentrantCall","inputs":[]}],"bytecode":{"object":"0x608060405234801561000f575f5ffd5b5060405161571e38038061571e833981810160405281019061003191906102c5565b3360405180602001604052805f8152506100508161018460201b60201c565b505f73ffffffffffffffffffffffffffffffffffffffff168173ffffffffffffffffffffffffffffffffffffffff16036100c1575f6040517f1e4fbdf70000000000000000000000000000000000000000000000000000000081526004016100b891906102ff565b60405180910390fd5b6100d08161019760201b60201c565b5060016004819055508060065f6101000a81548173ffffffffffffffffffffffffffffffffffffffff021916908373ffffffffffffffffffffffffffffffffffffffff1602179055506040516101259061025a565b604051809103905ff08015801561013e573d5f5f3e3d5ffd5b5060075f6101000a81548173ffffffffffffffffffffffffffffffffffffffff021916908373ffffffffffffffffffffffffffffffffffffffff16021790555050610624565b80600290816101939190610555565b5050565b5f60035f9054906101000a900473ffffffffffffffffffffffffffffffffffffffff1690508160035f6101000a81548173ffffffffffffffffffffffffffffffffffffffff021916908373ffffffffffffffffffffffffffffffffffffffff1602179055508173ffffffffffffffffffffffffffffffffffffffff168173ffffffffffffffffffffffffffffffffffffffff167f8be0079c531659141344cd1fd0a4f28419497f9722a3daafe3b4186f6b6457e060405160405180910390a35050565b611ba980613b7583390190565b5f5ffd5b5f73ffffffffffffffffffffffffffffffffffffffff82169050919050565b5f6102948261026b565b9050919050565b6102a48161028a565b81146102ae575f5ffd5b50565b5f815190506102bf8161029b565b92915050565b5f602082840312156102da576102d9610267565b5b5f6102e7848285016102b1565b91505092915050565b6102f98161028a565b82525050565b5f6020820190506103125f8301846102f0565b92915050565b5f81519050919050565b7f4e487b71000000000000000000000000000000000000000000000000000000005f52604160045260245ffd5b7f4e487b71000000000000000000000000000000000000000000000000000000005f52602260045260245ffd5b5f600282049050600182168061039357607f821691505b6020821081036103a6576103a561034f565b5b50919050565b5f819050815f5260205f209050919050565b5f6020601f8301049050919050565b5f82821b905092915050565b5f600883026104087fffffffffffffffffffffffffffffffffffffffffffffffffffffffffffffffff826103cd565b61041286836103cd565b95508019841693508086168417925050509392505050565b5f819050919050565b5f819050919050565b5f61045661045161044c8461042a565b610433565b61042a565b9050919050565b5f819050919050565b61046f8361043c565b61048361047b8261045d565b8484546103d9565b825550505050565b5f5f905090565b61049a61048b565b6104a5818484610466565b505050565b5b818110156104c8576104bd5f82610492565b6001810190506104ab565b5050565b601f82111561050d576104de816103ac565b6104e7846103be565b810160208510156104f6578190505b61050a610502856103be565b8301826104aa565b50505b505050565b5f82821c905092915050565b5f61052d5f1984600802610512565b1980831691505092915050565b5f610545838361051e565b9150826002028217905092915050565b61055e82610318565b67ffffffffffffffff81111561057757610576610322565b5b610581825461037c565b61058c8282856104cc565b5f60209050601f8311600181146105bd575f84156105ab578287015190505b6105b5858261053a565b86555061061c565b601f1984166105cb866103ac565b5f5b828110156105f2578489015182556001820191506020850194506020810190506105cd565b8683101561060f578489015161060b601f89168261051e565b8355505b6001600288020188555050505b505050505050565b613544806106315f395ff3fe608060405234801561000f575f5ffd5b5060043610610134575f3560e01c80638da5cb5b116100b6578063e63db9b21161007a578063e63db9b21461035e578063e77d6f7c1461037c578063e985e9c51461039a578063f242432a146103ca578063f2fde38b146103e6578063fdbda0ec1461040257610134565b80638da5cb5b146102ba578063a0712d68146102d8578063a22cb465146102f4578063d742303114610310578063e1a452181461034057610134565b80631b62bd14116100fd5780631b62bd14146102165780632eb2c2d6146102465780633e413bee146102625780634e1273f414610280578063715018a6146102b057610134565b8062fdd58e1461013857806301ffc9a7146101685780630331582e146101985780630e89341c146101b6578063195f78ae146101e6575b5f5ffd5b610152600480360381019061014d919061217a565b610437565b60405161015f91906121c7565b60405180910390f35b610182600480360381019061017d9190612235565b61048c565b60405161018f919061227a565b60405180910390f35b6101a061056d565b6040516101ad91906121c7565b60405180910390f35b6101d060048036038101906101cb9190612293565b610573565b6040516101dd919061232e565b60405180910390f35b61020060048036038101906101fb9190612293565b610664565b60405161020d91906121c7565b60405180910390f35b610230600480360381019061022b91906125fe565b610679565b60405161023d91906121c7565b60405180910390f35b610260600480360381019061025b9190612754565b6108f4565b005b61026a61099b565b604051610277919061287a565b60405180910390f35b61029a60048036038101906102959190612893565b6109c0565b6040516102a791906129c0565b60405180910390f35b6102b8610aca565b005b6102c2610add565b6040516102cf91906129ef565b60405180910390f35b6102f260048036038101906102ed9190612293565b610b05565b005b61030e60048036038101906103099190612a32565b610e31565b005b61032a60048036038101906103259190612293565b610e47565b60405161033791906121c7565b60405180910390f35b610348610e5c565b60405161035591906121c7565b60405180910390f35b610366610e62565b60405161037391906129ef565b60405180910390f35b610384610e87565b60405161039191906121c7565b60405180910390f35b6103b460048036038101906103af9190612a70565b610e8d565b6040516103c1919061227a565b60405180910390f35b6103e460048036038101906103df9190612aae565b610f1b565b005b61040060048036038101906103fb9190612b41565b610fc2565b005b61041c60048036038101906104179190612293565b611046565b60405161042e96959493929190612b6c565b60405180910390f35b5f5f5f8381526020019081526020015f205f8473ffffffffffffffffffffffffffffffffffffffff1673ffffffffffffffffffffffffffffffffffffffff1681526020019081526020015f2054905092915050565b5f7fd9b67a26000000000000000000000000000000000000000000000000000000007bffffffffffffffffffffffffffffffffffffffffffffffffffffffff1916827bffffffffffffffffffffffffffffffffffffffffffffffffffffffff1916148061055657507f0e89341c000000000000000000000000000000000000000000000000000000007bffffffffffffffffffffffffffffffffffffffffffffffffffffffff1916827bffffffffffffffffffffffffffffffffffffffffffffffffffffffff1916145b8061056657506105658261114e565b5b9050919050565b61245481565b60605f60095f8481526020019081526020015f2054905060085f8281526020019081526020015f206005015f9054906101000a900460ff166105c0576105b8836111b7565b91505061065f565b60085f8281526020019081526020015f2060040180546105df90612bff565b80601f016020809104026020016040519081016040528092919081815260200182805461060b90612bff565b80156106565780601f1061062d57610100808354040283529160200191610656565b820191905f5260205f20905b81548152906001019060200180831161063957829003601f168201915b50505050509150505b919050565b6009602052805f5260405f205f915090505481565b5f610682611249565b5f60055f81548092919061069590612c5c565b9190505590505f6106c660075f9054906101000a900473ffffffffffffffffffffffffffffffffffffffff1661128f565b90508073ffffffffffffffffffffffffffffffffffffffff16637fbbe46f86866040518363ffffffff1660e01b8152600401610703929190612d5a565b5f604051808303815f87803b15801561071a575f5ffd5b505af115801561072c573d5f5f3e3d5ffd5b505050506040518060c001604052808381526020013373ffffffffffffffffffffffffffffffffffffffff1681526020018781526020018273ffffffffffffffffffffffffffffffffffffffff1681526020018881526020016001151581525060085f8481526020019081526020015f205f820151815f01556020820151816001015f6101000a81548173ffffffffffffffffffffffffffffffffffffffff021916908373ffffffffffffffffffffffffffffffffffffffff160217905550604082015181600201556060820151816003015f6101000a81548173ffffffffffffffffffffffffffffffffffffffff021916908373ffffffffffffffffffffffffffffffffffffffff16021790555060808201518160040190816108509190612f26565b5060a0820151816005015f6101000a81548160ff0219169083151502179055509050505f8290508260095f8381526020019081526020015f20819055503373ffffffffffffffffffffffffffffffffffffffff16837fc8fa2169c501fd18a711b837125218b0f2b670230cd2105827f33068a6d2adb0848a6040516108d6929190612ff5565b60405180910390a38293505050506108ec6112a1565b949350505050565b5f6108fd6112ab565b90508073ffffffffffffffffffffffffffffffffffffffff168673ffffffffffffffffffffffffffffffffffffffff161415801561094257506109408682610e8d565b155b156109865780866040517fe237d92200000000000000000000000000000000000000000000000000000000815260040161097d92919061301c565b60405180910390fd5b61099386868686866112b2565b505050505050565b60065f9054906101000a900473ffffffffffffffffffffffffffffffffffffffff1681565b60608151835114610a0c57815183516040517f5b059991000000000000000000000000000000000000000000000000000000008152600401610a03929190613043565b60405180910390fd5b5f835167ffffffffffffffff811115610a2857610a27612356565b5b604051908082528060200260200182016040528015610a565781602001602082028036833780820191505090505b5090505f5f90505b8451811015610abf57610a95610a7d82876113a690919063ffffffff16565b610a9083876113b990919063ffffffff16565b610437565b828281518110610aa857610aa761306a565b5b602002602001018181525050806001019050610a5e565b508091505092915050565b610ad26113cc565b610adb5f611453565b565b5f60035f9054906101000a900473ffffffffffffffffffffffffffffffffffffffff16905090565b610b0d611249565b5f60085f8381526020019081526020015f209050806005015f9054906101000a900460ff16610b71576040517f08c379a0000000000000000000000000000000000000000000000000000000008152600401610b68906130e1565b60405180910390fd5b5f816002015490505f612710612454612710610b8d91906130ff565b83610b989190613132565b610ba291906131a0565b90505f8183610bb191906130ff565b905060065f9054906101000a900473ffffffffffffffffffffffffffffffffffffffff1673ffffffffffffffffffffffffffffffffffffffff166323b872dd33610bf9610add565b856040518463ffffffff1660e01b8152600401610c18939291906131d0565b6020604051808303815f875af1158015610c34573d5f5f3e3d5ffd5b505050506040513d601f19601f82011682018060405250810190610c589190613219565b610c97576040517f08c379a0000000000000000000000000000000000000000000000000000000008152600401610c8e9061328e565b60405180910390fd5b60065f9054906101000a900473ffffffffffffffffffffffffffffffffffffffff1673ffffffffffffffffffffffffffffffffffffffff166323b872dd33866003015f9054906101000a900473ffffffffffffffffffffffffffffffffffffffff16846040518463ffffffff1660e01b8152600401610d18939291906131d0565b6020604051808303815f875af1158015610d34573d5f5f3e3d5ffd5b505050506040513d601f19601f82011682018060405250810190610d589190613219565b610d97576040517f08c379a0000000000000000000000000000000000000000000000000000000008152600401610d8e906132f6565b60405180910390fd5b5f859050600a5f8781526020019081526020015f205f815480929190610dbc90612c5c565b9190505550610ddc3382600160405180602001604052805f815250611516565b3373ffffffffffffffffffffffffffffffffffffffff1681877f019e09abd07df6102a3f323b9ed37bd3455d80363247ec85718a54ccbf036be260405160405180910390a45050505050610e2e6112a1565b50565b610e43610e3c6112ab565b83836115ab565b5050565b600a602052805f5260405f205f915090505481565b61271081565b60075f9054906101000a900473ffffffffffffffffffffffffffffffffffffffff1681565b60055481565b5f60015f8473ffffffffffffffffffffffffffffffffffffffff1673ffffffffffffffffffffffffffffffffffffffff1681526020019081526020015f205f8373ffffffffffffffffffffffffffffffffffffffff1673ffffffffffffffffffffffffffffffffffffffff1681526020019081526020015f205f9054906101000a900460ff16905092915050565b5f610f246112ab565b90508073ffffffffffffffffffffffffffffffffffffffff168673ffffffffffffffffffffffffffffffffffffffff1614158015610f695750610f678682610e8d565b155b15610fad5780866040517fe237d922000000000000000000000000000000000000000000000000000000008152600401610fa492919061301c565b60405180910390fd5b610fba8686868686611714565b505050505050565b610fca6113cc565b5f73ffffffffffffffffffffffffffffffffffffffff168173ffffffffffffffffffffffffffffffffffffffff160361103a575f6040517f1e4fbdf700000000000000000000000000000000000000000000000000000000815260040161103191906129ef565b60405180910390fd5b61104381611453565b50565b6008602052805f5260405f205f91509050805f015490806001015f9054906101000a900473ffffffffffffffffffffffffffffffffffffffff1690806002015490806003015f9054906101000a900473ffffffffffffffffffffffffffffffffffffffff16908060040180546110bb90612bff565b80601f01602080910402602001604051908101604052809291908181526020018280546110e790612bff565b80156111325780601f1061110957610100808354040283529160200191611132565b820191905f5260205f20905b81548152906001019060200180831161111557829003601f168201915b505050505090806005015f9054906101000a900460ff16905086565b5f7f01ffc9a7000000000000000000000000000000000000000000000000000000007bffffffffffffffffffffffffffffffffffffffffffffffffffffffff1916827bffffffffffffffffffffffffffffffffffffffffffffffffffffffff1916149050919050565b6060600280546111c690612bff565b80601f01602080910402602001604051908101604052809291908181526020018280546111f290612bff565b801561123d5780601f106112145761010080835404028352916020019161123d565b820191905f5260205f20905b81548152906001019060200180831161122057829003601f168201915b50505050509050919050565b600260045403611285576040517f3ee5aeb500000000000000000000000000000000000000000000000000000000815260040160405180910390fd5b6002600481905550565b5f61129a825f61181a565b9050919050565b6001600481905550565b5f33905090565b5f73ffffffffffffffffffffffffffffffffffffffff168473ffffffffffffffffffffffffffffffffffffffff1603611322575f6040517f57f447ce00000000000000000000000000000000000000000000000000000000815260040161131991906129ef565b60405180910390fd5b5f73ffffffffffffffffffffffffffffffffffffffff168573ffffffffffffffffffffffffffffffffffffffff1603611392575f6040517f01a8351400000000000000000000000000000000000000000000000000000000815260040161138991906129ef565b60405180910390fd5b61139f858585858561190f565b5050505050565b5f60208202602084010151905092915050565b5f60208202602084010151905092915050565b6113d46112ab565b73ffffffffffffffffffffffffffffffffffffffff166113f2610add565b73ffffffffffffffffffffffffffffffffffffffff1614611451576114156112ab565b6040517f118cdaa700000000000000000000000000000000000000000000000000000000815260040161144891906129ef565b60405180910390fd5b565b5f60035f9054906101000a900473ffffffffffffffffffffffffffffffffffffffff1690508160035f6101000a81548173ffffffffffffffffffffffffffffffffffffffff021916908373ffffffffffffffffffffffffffffffffffffffff1602179055508173ffffffffffffffffffffffffffffffffffffffff168173ffffffffffffffffffffffffffffffffffffffff167f8be0079c531659141344cd1fd0a4f28419497f9722a3daafe3b4186f6b6457e060405160405180910390a35050565b5f73ffffffffffffffffffffffffffffffffffffffff168473ffffffffffffffffffffffffffffffffffffffff1603611586575f6040517f57f447ce00000000000000000000000000000000000000000000000000000000815260040161157d91906129ef565b60405180910390fd5b5f5f61159285856119bb565b915091506115a35f8784848761190f565b505050505050565b5f73ffffffffffffffffffffffffffffffffffffffff168273ffffffffffffffffffffffffffffffffffffffff160361161b575f6040517fced3e10000000000000000000000000000000000000000000000000000000000815260040161161291906129ef565b60405180910390fd5b8060015f8573ffffffffffffffffffffffffffffffffffffffff1673ffffffffffffffffffffffffffffffffffffffff1681526020019081526020015f205f8473ffffffffffffffffffffffffffffffffffffffff1673ffffffffffffffffffffffffffffffffffffffff1681526020019081526020015f205f6101000a81548160ff0219169083151502179055508173ffffffffffffffffffffffffffffffffffffffff168373ffffffffffffffffffffffffffffffffffffffff167f17307eab39ab6107e8899845ad3d59bd9653f200f220920489ca2b5937696c3183604051611707919061227a565b60405180910390a3505050565b5f73ffffffffffffffffffffffffffffffffffffffff168473ffffffffffffffffffffffffffffffffffffffff1603611784575f6040517f57f447ce00000000000000000000000000000000000000000000000000000000815260040161177b91906129ef565b60405180910390fd5b5f73ffffffffffffffffffffffffffffffffffffffff168573ffffffffffffffffffffffffffffffffffffffff16036117f4575f6040517f01a835140000000000000000000000000000000000000000000000000000000081526004016117eb91906129ef565b60405180910390fd5b5f5f61180085856119bb565b91509150611811878784848761190f565b50505050505050565b5f814710156118625747826040517fcf479181000000000000000000000000000000000000000000000000000000008152600401611859929190613043565b60405180910390fd5b763d602d80600a3d3981f3363d3d373d3d3d363d730000008360601b60e81c175f526e5af43d82803e903d91602b57fd5bf38360781b176020526037600983f090505f73ffffffffffffffffffffffffffffffffffffffff168173ffffffffffffffffffffffffffffffffffffffff1603611909576040517fb06ebf3d00000000000000000000000000000000000000000000000000000000815260040160405180910390fd5b92915050565b61191b858585856119eb565b5f73ffffffffffffffffffffffffffffffffffffffff168473ffffffffffffffffffffffffffffffffffffffff16146119b4575f6119576112ab565b905060018451036119a3575f6119765f866113b990919063ffffffff16565b90505f61198c5f866113b990919063ffffffff16565b905061199c838989858589611d7e565b50506119b2565b6119b1818787878787611f2d565b5b505b5050505050565b60608060405191506001825283602083015260408201905060018152826020820152604081016040529250929050565b8051825114611a3557815181516040517f5b059991000000000000000000000000000000000000000000000000000000008152600401611a2c929190613043565b60405180910390fd5b5f611a3e6112ab565b90505f5f90505b8351811015611c3d575f611a6282866113b990919063ffffffff16565b90505f611a7883866113b990919063ffffffff16565b90505f73ffffffffffffffffffffffffffffffffffffffff168873ffffffffffffffffffffffffffffffffffffffff1614611b9b575f5f5f8481526020019081526020015f205f8a73ffffffffffffffffffffffffffffffffffffffff1673ffffffffffffffffffffffffffffffffffffffff1681526020019081526020015f2054905081811015611b4757888183856040517f03dee4c5000000000000000000000000000000000000000000000000000000008152600401611b3e9493929190613314565b60405180910390fd5b8181035f5f8581526020019081526020015f205f8b73ffffffffffffffffffffffffffffffffffffffff1673ffffffffffffffffffffffffffffffffffffffff1681526020019081526020015f2081905550505b5f73ffffffffffffffffffffffffffffffffffffffff168773ffffffffffffffffffffffffffffffffffffffff1614611c3057805f5f8481526020019081526020015f205f8973ffffffffffffffffffffffffffffffffffffffff1673ffffffffffffffffffffffffffffffffffffffff1681526020019081526020015f205f828254611c289190613357565b925050819055505b5050806001019050611a45565b506001835103611cf8575f611c5b5f856113b990919063ffffffff16565b90505f611c715f856113b990919063ffffffff16565b90508573ffffffffffffffffffffffffffffffffffffffff168773ffffffffffffffffffffffffffffffffffffffff168473ffffffffffffffffffffffffffffffffffffffff167fc3d58168c5ae7397731d063d5bbf3d657854427343f4c083240f7aacaa2d0f628585604051611ce9929190613043565b60405180910390a45050611d77565b8373ffffffffffffffffffffffffffffffffffffffff168573ffffffffffffffffffffffffffffffffffffffff168273ffffffffffffffffffffffffffffffffffffffff167f4a39dc06d4c0dbc64b70af90fd698a233a518aa5d07e595d983b8c0526c8f7fb8686604051611d6e92919061338a565b60405180910390a45b5050505050565b5f8473ffffffffffffffffffffffffffffffffffffffff163b1115611f25578373ffffffffffffffffffffffffffffffffffffffff1663f23a6e6187878686866040518663ffffffff1660e01b8152600401611dde959493929190613411565b6020604051808303815f875af1925050508015611e1957506040513d601f19601f82011682018060405250810190611e16919061347d565b60015b611e9a573d805f8114611e47576040519150601f19603f3d011682016040523d82523d5f602084013e611e4c565b606091505b505f815103611e9257846040517f57f447ce000000000000000000000000000000000000000000000000000000008152600401611e8991906129ef565b60405180910390fd5b805160208201fd5b63f23a6e6160e01b7bffffffffffffffffffffffffffffffffffffffffffffffffffffffff1916817bffffffffffffffffffffffffffffffffffffffffffffffffffffffff191614611f2357846040517f57f447ce000000000000000000000000000000000000000000000000000000008152600401611f1a91906129ef565b60405180910390fd5b505b505050505050565b5f8473ffffffffffffffffffffffffffffffffffffffff163b11156120d4578373ffffffffffffffffffffffffffffffffffffffff1663bc197c8187878686866040518663ffffffff1660e01b8152600401611f8d9594939291906134a8565b6020604051808303815f875af1925050508015611fc857506040513d601f19601f82011682018060405250810190611fc5919061347d565b60015b612049573d805f8114611ff6576040519150601f19603f3d011682016040523d82523d5f602084013e611ffb565b606091505b505f81510361204157846040517f57f447ce00000000000000000000000000000000000000000000000000000000815260040161203891906129ef565b60405180910390fd5b805160208201fd5b63bc197c8160e01b7bffffffffffffffffffffffffffffffffffffffffffffffffffffffff1916817bffffffffffffffffffffffffffffffffffffffffffffffffffffffff1916146120d257846040517f57f447ce0000000000000000000000000000000000000000000000000000000081526004016120c991906129ef565b60405180910390fd5b505b505050505050565b5f604051905090565b5f5ffd5b5f5ffd5b5f73ffffffffffffffffffffffffffffffffffffffff82169050919050565b5f612116826120ed565b9050919050565b6121268161210c565b8114612130575f5ffd5b50565b5f813590506121418161211d565b92915050565b5f819050919050565b61215981612147565b8114612163575f5ffd5b50565b5f8135905061217481612150565b92915050565b5f5f604083850312156121905761218f6120e5565b5b5f61219d85828601612133565b92505060206121ae85828601612166565b9150509250929050565b6121c181612147565b82525050565b5f6020820190506121da5f8301846121b8565b92915050565b5f7fffffffff0000000000000000000000000000000000000000000000000000000082169050919050565b612214816121e0565b811461221e575f5ffd5b50565b5f8135905061222f8161220b565b92915050565b5f6020828403121561224a576122496120e5565b5b5f61225784828501612221565b91505092915050565b5f8115159050919050565b61227481612260565b82525050565b5f60208201905061228d5f83018461226b565b92915050565b5f602082840312156122a8576122a76120e5565b5b5f6122b584828501612166565b91505092915050565b5f81519050919050565b5f82825260208201905092915050565b8281835e5f83830152505050565b5f601f19601f8301169050919050565b5f612300826122be565b61230a81856122c8565b935061231a8185602086016122d8565b612323816122e6565b840191505092915050565b5f6020820190508181035f83015261234681846122f6565b905092915050565b5f5ffd5b5f5ffd5b7f4e487b71000000000000000000000000000000000000000000000000000000005f52604160045260245ffd5b61238c826122e6565b810181811067ffffffffffffffff821117156123ab576123aa612356565b5b80604052505050565b5f6123bd6120dc565b90506123c98282612383565b919050565b5f67ffffffffffffffff8211156123e8576123e7612356565b5b6123f1826122e6565b9050602081019050919050565b828183375f83830152505050565b5f61241e612419846123ce565b6123b4565b90508281526020810184848401111561243a57612439612352565b5b6124458482856123fe565b509392505050565b5f82601f8301126124615761246061234e565b5b813561247184826020860161240c565b91505092915050565b5f67ffffffffffffffff82111561249457612493612356565b5b602082029050602081019050919050565b5f5ffd5b5f6124bb6124b68461247a565b6123b4565b905080838252602082019050602084028301858111156124de576124dd6124a5565b5b835b8181101561250757806124f38882612133565b8452602084019350506020810190506124e0565b5050509392505050565b5f82601f8301126125255761252461234e565b5b81356125358482602086016124a9565b91505092915050565b5f67ffffffffffffffff82111561255857612557612356565b5b602082029050602081019050919050565b5f61257b6125768461253e565b6123b4565b9050808382526020820190506020840283018581111561259e5761259d6124a5565b5b835b818110156125c757806125b38882612166565b8452602084019350506020810190506125a0565b5050509392505050565b5f82601f8301126125e5576125e461234e565b5b81356125f5848260208601612569565b91505092915050565b5f5f5f5f60808587031215612616576126156120e5565b5b5f85013567ffffffffffffffff811115612633576126326120e9565b5b61263f8782880161244d565b945050602061265087828801612166565b935050604085013567ffffffffffffffff811115612671576126706120e9565b5b61267d87828801612511565b925050606085013567ffffffffffffffff81111561269e5761269d6120e9565b5b6126aa878288016125d1565b91505092959194509250565b5f67ffffffffffffffff8211156126d0576126cf612356565b5b6126d9826122e6565b9050602081019050919050565b5f6126f86126f3846126b6565b6123b4565b90508281526020810184848401111561271457612713612352565b5b61271f8482856123fe565b509392505050565b5f82601f83011261273b5761273a61234e565b5b813561274b8482602086016126e6565b91505092915050565b5f5f5f5f5f60a0868803121561276d5761276c6120e5565b5b5f61277a88828901612133565b955050602061278b88828901612133565b945050604086013567ffffffffffffffff8111156127ac576127ab6120e9565b5b6127b8888289016125d1565b935050606086013567ffffffffffffffff8111156127d9576127d86120e9565b5b6127e5888289016125d1565b925050608086013567ffffffffffffffff811115612806576128056120e9565b5b61281288828901612727565b9150509295509295909350565b5f819050919050565b5f61284261283d612838846120ed565b61281f565b6120ed565b9050919050565b5f61285382612828565b9050919050565b5f61286482612849565b9050919050565b6128748161285a565b82525050565b5f60208201905061288d5f83018461286b565b92915050565b5f5f604083850312156128a9576128a86120e5565b5b5f83013567ffffffffffffffff8111156128c6576128c56120e9565b5b6128d285828601612511565b925050602083013567ffffffffffffffff8111156128f3576128f26120e9565b5b6128ff858286016125d1565b9150509250929050565b5f81519050919050565b5f82825260208201905092915050565b5f819050602082019050919050565b61293b81612147565b82525050565b5f61294c8383612932565b60208301905092915050565b5f602082019050919050565b5f61296e82612909565b6129788185612913565b935061298383612923565b805f5b838110156129b357815161299a8882612941565b97506129a583612958565b925050600181019050612986565b5085935050505092915050565b5f6020820190508181035f8301526129d88184612964565b905092915050565b6129e98161210c565b82525050565b5f602082019050612a025f8301846129e0565b92915050565b612a1181612260565b8114612a1b575f5ffd5b50565b5f81359050612a2c81612a08565b92915050565b5f5f60408385031215612a4857612a476120e5565b5b5f612a5585828601612133565b9250506020612a6685828601612a1e565b9150509250929050565b5f5f60408385031215612a8657612a856120e5565b5b5f612a9385828601612133565b9250506020612aa485828601612133565b9150509250929050565b5f5f5f5f5f60a08688031215612ac757612ac66120e5565b5b5f612ad488828901612133565b9550506020612ae588828901612133565b9450506040612af688828901612166565b9350506060612b0788828901612166565b925050608086013567ffffffffffffffff811115612b2857612b276120e9565b5b612b3488828901612727565b9150509295509295909350565b5f60208284031215612b5657612b556120e5565b5b5f612b6384828501612133565b91505092915050565b5f60c082019050612b7f5f8301896121b8565b612b8c60208301886129e0565b612b9960408301876121b8565b612ba660608301866129e0565b8181036080830152612bb881856122f6565b9050612bc760a083018461226b565b979650505050505050565b7f4e487b71000000000000000000000000000000000000000000000000000000005f52602260045260245ffd5b5f6002820490506001821680612c1657607f821691505b602082108103612c2957612c28612bd2565b5b50919050565b7f4e487b71000000000000000000000000000000000000000000000000000000005f52601160045260245ffd5b5f612c6682612147565b91507fffffffffffffffffffffffffffffffffffffffffffffffffffffffffffffffff8203612c9857612c97612c2f565b5b600182019050919050565b5f81519050919050565b5f82825260208201905092915050565b5f819050602082019050919050565b612cd58161210c565b82525050565b5f612ce68383612ccc565b60208301905092915050565b5f602082019050919050565b5f612d0882612ca3565b612d128185612cad565b9350612d1d83612cbd565b805f5b83811015612d4d578151612d348882612cdb565b9750612d3f83612cf2565b925050600181019050612d20565b5085935050505092915050565b5f6040820190508181035f830152612d728185612cfe565b90508181036020830152612d868184612964565b90509392505050565b5f819050815f5260205f209050919050565b5f6020601f8301049050919050565b5f82821b905092915050565b5f60088302612deb7fffffffffffffffffffffffffffffffffffffffffffffffffffffffffffffffff82612db0565b612df58683612db0565b95508019841693508086168417925050509392505050565b5f612e27612e22612e1d84612147565b61281f565b612147565b9050919050565b5f819050919050565b612e4083612e0d565b612e54612e4c82612e2e565b848454612dbc565b825550505050565b5f5f905090565b612e6b612e5c565b612e76818484612e37565b505050565b5b81811015612e9957612e8e5f82612e63565b600181019050612e7c565b5050565b601f821115612ede57612eaf81612d8f565b612eb884612da1565b81016020851015612ec7578190505b612edb612ed385612da1565b830182612e7b565b50505b505050565b5f82821c905092915050565b5f612efe5f1984600802612ee3565b1980831691505092915050565b5f612f168383612eef565b9150826002028217905092915050565b612f2f826122be565b67ffffffffffffffff811115612f4857612f47612356565b5b612f528254612bff565b612f5d828285612e9d565b5f60209050601f831160018114612f8e575f8415612f7c578287015190505b612f868582612f0b565b865550612fed565b601f198416612f9c86612d8f565b5f5b82811015612fc357848901518255600182019150602085019450602081019050612f9e565b86831015612fe05784890151612fdc601f891682612eef565b8355505b6001600288020188555050505b505050505050565b5f6040820190506130085f8301856129e0565b61301560208301846121b8565b9392505050565b5f60408201905061302f5f8301856129e0565b61303c60208301846129e0565b9392505050565b5f6040820190506130565f8301856121b8565b61306360208301846121b8565b9392505050565b7f4e487b71000000000000000000000000000000000000000000000000000000005f52603260045260245ffd5b7f4e6f6e6578697374656e7420636f6c6c656374696f6e000000000000000000005f82015250565b5f6130cb6016836122c8565b91506130d682613097565b602082019050919050565b5f6020820190508181035f8301526130f8816130bf565b9050919050565b5f61310982612147565b915061311483612147565b925082820390508181111561312c5761312b612c2f565b5b92915050565b5f61313c82612147565b915061314783612147565b925082820261315581612147565b9150828204841483151761316c5761316b612c2f565b5b5092915050565b7f4e487b71000000000000000000000000000000000000000000000000000000005f52601260045260245ffd5b5f6131aa82612147565b91506131b583612147565b9250826131c5576131c4613173565b5b828204905092915050565b5f6060820190506131e35f8301866129e0565b6131f060208301856129e0565b6131fd60408301846121b8565b949350505050565b5f8151905061321381612a08565b92915050565b5f6020828403121561322e5761322d6120e5565b5b5f61323b84828501613205565b91505092915050565b7f506c6174666f726d20666565206661696c6564000000000000000000000000005f82015250565b5f6132786013836122c8565b915061328382613244565b602082019050919050565b5f6020820190508181035f8301526132a58161326c565b9050919050565b7f417274697374207368617265206661696c6564000000000000000000000000005f82015250565b5f6132e06013836122c8565b91506132eb826132ac565b602082019050919050565b5f6020820190508181035f83015261330d816132d4565b9050919050565b5f6080820190506133275f8301876129e0565b61333460208301866121b8565b61334160408301856121b8565b61334e60608301846121b8565b95945050505050565b5f61336182612147565b915061336c83612147565b925082820190508082111561338457613383612c2f565b5b92915050565b5f6040820190508181035f8301526133a28185612964565b905081810360208301526133b68184612964565b90509392505050565b5f81519050919050565b5f82825260208201905092915050565b5f6133e3826133bf565b6133ed81856133c9565b93506133fd8185602086016122d8565b613406816122e6565b840191505092915050565b5f60a0820190506134245f8301886129e0565b61343160208301876129e0565b61343e60408301866121b8565b61344b60608301856121b8565b818103608083015261345d81846133d9565b90509695505050505050565b5f815190506134778161220b565b92915050565b5f60208284031215613492576134916120e5565b5b5f61349f84828501613469565b91505092915050565b5f60a0820190506134bb5f8301886129e0565b6134c860208301876129e0565b81810360408301526134da8186612964565b905081810360608301526134ee8185612964565b9050818103608083015261350281846133d9565b9050969550505050505056fea2646970667358221220997eebd69454b473c178b279cff01ba84f2693b0e26ee2f5538a10e728431bdc64736f6c634300081e00336080604052348015600e575f5ffd5b5060015f81905550611b86806100235f395ff3fe608060405260043610610094575f3560e01c80639852595c116100585780639852595c146101ca578063cdd9ac3814610206578063ce7c2ac214610242578063e33b7de31461027e578063f9a76be2146102a8576100d4565b806319165587146100d857806319766c48146101005780633a98ef391461013c57806363037b0c146101665780637fbbe46f146101a2576100d4565b366100d4577f6ef95f06320e7a25a04a175ca677b7052bdd97131872c2192525a629f51be77033346040516100ca929190611097565b60405180910390a1005b5f5ffd5b3480156100e3575f5ffd5b506100fe60048036038101906100f9919061110a565b6102d0565b005b34801561010b575f5ffd5b5061012660048036038101906101219190611170565b6105a5565b604051610133919061119b565b60405180910390f35b348015610147575f5ffd5b506101506105ba565b60405161015d919061119b565b60405180910390f35b348015610171575f5ffd5b5061018c600480360381019061018791906111de565b6105c0565b6040516101999190611209565b60405180910390f35b3480156101ad575f5ffd5b506101c860048036038101906101c3919061145c565b6105fb565b005b3480156101d5575f5ffd5b506101f060048036038101906101eb91906114d2565b610855565b6040516101fd919061119b565b60405180910390f35b348015610211575f5ffd5b5061022c600480360381019061022791906114fd565b61086a565b604051610239919061119b565b60405180910390f35b34801561024d575f5ffd5b50610268600480360381019061026391906114d2565b61088a565b604051610275919061119b565b60405180910390f35b348015610289575f5ffd5b5061029261089f565b60405161029f919061119b565b60405180910390f35b3480156102b3575f5ffd5b506102ce60048036038101906102c991906114fd565b6108a5565b005b6102d8610c77565b5f60035f8373ffffffffffffffffffffffffffffffffffffffff1673ffffffffffffffffffffffffffffffffffffffff1681526020019081526020015f205411610357576040517f08c379a000000000000000000000000000000000000000000000000000000000815260040161034e90611595565b60405180910390fd5b5f6002544761036691906115e0565b90505f60045f8473ffffffffffffffffffffffffffffffffffffffff1673ffffffffffffffffffffffffffffffffffffffff1681526020019081526020015f205460015460035f8673ffffffffffffffffffffffffffffffffffffffff1673ffffffffffffffffffffffffffffffffffffffff1681526020019081526020015f2054846103f39190611613565b6103fd9190611681565b61040791906116b1565b90505f811161044b576040517f08c379a00000000000000000000000000000000000000000000000000000000081526004016104429061172e565b60405180910390fd5b8060045f8573ffffffffffffffffffffffffffffffffffffffff1673ffffffffffffffffffffffffffffffffffffffff1681526020019081526020015f205f82825461049791906115e0565b925050819055508060025f8282546104af91906115e0565b925050819055505f8373ffffffffffffffffffffffffffffffffffffffff16826040516104db90611779565b5f6040518083038185875af1925050503d805f8114610515576040519150601f19603f3d011682016040523d82523d5f602084013e61051a565b606091505b505090508061055e576040517f08c379a0000000000000000000000000000000000000000000000000000000008152600401610555906117d7565b60405180910390fd5b7fdf20fd1e76bc69d672e4814fafb2c449bba3a5369d8359adf9e05e6fde87b056848360405161058f929190611850565b60405180910390a15050506105a2610cbb565b50565b6006602052805f5260405f205f915090505481565b60015481565b600581815481106105cf575f80fd5b905f5260205f20015f915054906101000a900473ffffffffffffffffffffffffffffffffffffffff1681565b5f610604610cc4565b90505f815f0160089054906101000a900460ff161590505f825f015f9054906101000a900467ffffffffffffffff1690505f5f8267ffffffffffffffff1614801561064c5750825b90505f60018367ffffffffffffffff1614801561067f57505f3073ffffffffffffffffffffffffffffffffffffffff163b145b90508115801561068d575080155b156106c4576040517ff92ee8a900000000000000000000000000000000000000000000000000000000815260040160405180910390fd5b6001855f015f6101000a81548167ffffffffffffffff021916908367ffffffffffffffff1602179055508315610711576001855f0160086101000a81548160ff0219169083151502179055505b8551875114610755576040517f08c379a000000000000000000000000000000000000000000000000000000000815260040161074c906118c1565b60405180910390fd5b5f875111610798576040517f08c379a000000000000000000000000000000000000000000000000000000000815260040161078f90611929565b60405180910390fd5b5f5f90505b87518110156107f1576107e48882815181106107bc576107bb611947565b5b60200260200101518883815181106107d7576107d6611947565b5b6020026020010151610cd7565b808060010191505061079d565b50831561084c575f855f0160086101000a81548160ff0219169083151502179055507fc7f505b2f371ae2175ee4913f4499e1f2633a7b5936321eed1cdaeb6115181d2600160405161084391906119c0565b60405180910390a15b50505050505050565b6004602052805f5260405f205f915090505481565b6007602052815f5260405f20602052805f5260405f205f91509150505481565b6003602052805f5260405f205f915090505481565b60025481565b6108ad610c77565b5f60035f8373ffffffffffffffffffffffffffffffffffffffff1673ffffffffffffffffffffffffffffffffffffffff1681526020019081526020015f20541161092c576040517f08c379a000000000000000000000000000000000000000000000000000000000815260040161092390611595565b60405180910390fd5b5f60065f8473ffffffffffffffffffffffffffffffffffffffff1673ffffffffffffffffffffffffffffffffffffffff1681526020019081526020015f20548373ffffffffffffffffffffffffffffffffffffffff166370a08231306040518263ffffffff1660e01b81526004016109a49190611209565b602060405180830381865afa1580156109bf573d5f5f3e3d5ffd5b505050506040513d601f19601f820116820180604052508101906109e391906119ed565b6109ed91906115e0565b90505f60075f8573ffffffffffffffffffffffffffffffffffffffff1673ffffffffffffffffffffffffffffffffffffffff1681526020019081526020015f205f8473ffffffffffffffffffffffffffffffffffffffff1673ffffffffffffffffffffffffffffffffffffffff1681526020019081526020015f205460015460035f8673ffffffffffffffffffffffffffffffffffffffff1673ffffffffffffffffffffffffffffffffffffffff1681526020019081526020015f205484610ab59190611613565b610abf9190611681565b610ac991906116b1565b90505f8111610b0d576040517f08c379a0000000000000000000000000000000000000000000000000000000008152600401610b049061172e565b60405180910390fd5b8060075f8673ffffffffffffffffffffffffffffffffffffffff1673ffffffffffffffffffffffffffffffffffffffff1681526020019081526020015f205f8573ffffffffffffffffffffffffffffffffffffffff1673ffffffffffffffffffffffffffffffffffffffff1681526020019081526020015f205f828254610b9491906115e0565b925050819055508060065f8673ffffffffffffffffffffffffffffffffffffffff1673ffffffffffffffffffffffffffffffffffffffff1681526020019081526020015f205f828254610be791906115e0565b92505081905550610c1983828673ffffffffffffffffffffffffffffffffffffffff16610efd9092919063ffffffff16565b8373ffffffffffffffffffffffffffffffffffffffff167f3be5b7a71e84ed12875d241991c70855ac5817d847039e17a9d895c1ceb0f18a8483604051610c61929190611097565b60405180910390a25050610c73610cbb565b5050565b60025f5403610cb2576040517f3ee5aeb500000000000000000000000000000000000000000000000000000000815260040160405180910390fd5b60025f81905550565b60015f81905550565b5f5f610cce610f7c565b90508091505090565b5f73ffffffffffffffffffffffffffffffffffffffff168273ffffffffffffffffffffffffffffffffffffffff1603610d45576040517f08c379a0000000000000000000000000000000000000000000000000000000008152600401610d3c90611a62565b60405180910390fd5b5f8111610d87576040517f08c379a0000000000000000000000000000000000000000000000000000000008152600401610d7e90611aca565b60405180910390fd5b5f60035f8473ffffffffffffffffffffffffffffffffffffffff1673ffffffffffffffffffffffffffffffffffffffff1681526020019081526020015f205414610e06576040517f08c379a0000000000000000000000000000000000000000000000000000000008152600401610dfd90611b32565b60405180910390fd5b600582908060018154018082558091505060019003905f5260205f20015f9091909190916101000a81548173ffffffffffffffffffffffffffffffffffffffff021916908373ffffffffffffffffffffffffffffffffffffffff1602179055508060035f8473ffffffffffffffffffffffffffffffffffffffff1673ffffffffffffffffffffffffffffffffffffffff1681526020019081526020015f20819055508060015f828254610eb991906115e0565b925050819055507f40c340f65e17194d14ddddb073d3c9f888e3cb52b5aae0c6c7706b4fbc905fac8282604051610ef1929190611097565b60405180910390a15050565b610f77838473ffffffffffffffffffffffffffffffffffffffff1663a9059cbb8585604051602401610f30929190611097565b604051602081830303815290604052915060e01b6020820180517bffffffffffffffffffffffffffffffffffffffffffffffffffffffff8381831617835250505050610fa5565b505050565b5f7ff0c57e16840df040f15088dc2f81fe391c3923bec73e23a9662efc9c229c6a005f1b905090565b5f5f60205f8451602086015f885af180610fc4576040513d5f823e3d81fd5b3d92505f519150505f8214610fdd576001811415610ff8565b5f8473ffffffffffffffffffffffffffffffffffffffff163b145b1561103a57836040517f5274afe70000000000000000000000000000000000000000000000000000000081526004016110319190611209565b60405180910390fd5b50505050565b5f73ffffffffffffffffffffffffffffffffffffffff82169050919050565b5f61106982611040565b9050919050565b6110798161105f565b82525050565b5f819050919050565b6110918161107f565b82525050565b5f6040820190506110aa5f830185611070565b6110b76020830184611088565b9392505050565b5f604051905090565b5f5ffd5b5f5ffd5b5f6110d982611040565b9050919050565b6110e9816110cf565b81146110f3575f5ffd5b50565b5f81359050611104816110e0565b92915050565b5f6020828403121561111f5761111e6110c7565b5b5f61112c848285016110f6565b91505092915050565b5f61113f8261105f565b9050919050565b61114f81611135565b8114611159575f5ffd5b50565b5f8135905061116a81611146565b92915050565b5f60208284031215611185576111846110c7565b5b5f6111928482850161115c565b91505092915050565b5f6020820190506111ae5f830184611088565b92915050565b6111bd8161107f565b81146111c7575f5ffd5b50565b5f813590506111d8816111b4565b92915050565b5f602082840312156111f3576111f26110c7565b5b5f611200848285016111ca565b91505092915050565b5f60208201905061121c5f830184611070565b92915050565b5f5ffd5b5f601f19601f8301169050919050565b7f4e487b71000000000000000000000000000000000000000000000000000000005f52604160045260245ffd5b61126c82611226565b810181811067ffffffffffffffff8211171561128b5761128a611236565b5b80604052505050565b5f61129d6110be565b90506112a98282611263565b919050565b5f67ffffffffffffffff8211156112c8576112c7611236565b5b602082029050602081019050919050565b5f5ffd5b6112e68161105f565b81146112f0575f5ffd5b50565b5f81359050611301816112dd565b92915050565b5f611319611314846112ae565b611294565b9050808382526020820190506020840283018581111561133c5761133b6112d9565b5b835b81811015611365578061135188826112f3565b84526020840193505060208101905061133e565b5050509392505050565b5f82601f83011261138357611382611222565b5b8135611393848260208601611307565b91505092915050565b5f67ffffffffffffffff8211156113b6576113b5611236565b5b602082029050602081019050919050565b5f6113d96113d48461139c565b611294565b905080838252602082019050602084028301858111156113fc576113fb6112d9565b5b835b81811015611425578061141188826111ca565b8452602084019350506020810190506113fe565b5050509392505050565b5f82601f83011261144357611442611222565b5b81356114538482602086016113c7565b91505092915050565b5f5f60408385031215611472576114716110c7565b5b5f83013567ffffffffffffffff81111561148f5761148e6110cb565b5b61149b8582860161136f565b925050602083013567ffffffffffffffff8111156114bc576114bb6110cb565b5b6114c88582860161142f565b9150509250929050565b5f602082840312156114e7576114e66110c7565b5b5f6114f4848285016112f3565b91505092915050565b5f5f60408385031215611513576115126110c7565b5b5f6115208582860161115c565b9250506020611531858286016112f3565b9150509250929050565b5f82825260208201905092915050565b7f4e6f2073686172657300000000000000000000000000000000000000000000005f82015250565b5f61157f60098361153b565b915061158a8261154b565b602082019050919050565b5f6020820190508181035f8301526115ac81611573565b9050919050565b7f4e487b71000000000000000000000000000000000000000000000000000000005f52601160045260245ffd5b5f6115ea8261107f565b91506115f58361107f565b925082820190508082111561160d5761160c6115b3565b5b92915050565b5f61161d8261107f565b91506116288361107f565b92508282026116368161107f565b9150828204841483151761164d5761164c6115b3565b5b5092915050565b7f4e487b71000000000000000000000000000000000000000000000000000000005f52601260045260245ffd5b5f61168b8261107f565b91506116968361107f565b9250826116a6576116a5611654565b5b828204905092915050565b5f6116bb8261107f565b91506116c68361107f565b92508282039050818111156116de576116dd6115b3565b5b92915050565b7f4e6f7420647565207061796d656e7400000000000000000000000000000000005f82015250565b5f611718600f8361153b565b9150611723826116e4565b602082019050919050565b5f6020820190508181035f8301526117458161170c565b9050919050565b5f81905092915050565b50565b5f6117645f8361174c565b915061176f82611756565b5f82019050919050565b5f61178382611759565b9150819050919050565b7f5472616e73666572206661696c656400000000000000000000000000000000005f82015250565b5f6117c1600f8361153b565b91506117cc8261178d565b602082019050919050565b5f6020820190508181035f8301526117ee816117b5565b9050919050565b5f819050919050565b5f61181861181361180e84611040565b6117f5565b611040565b9050919050565b5f611829826117fe565b9050919050565b5f61183a8261181f565b9050919050565b61184a81611830565b82525050565b5f6040820190506118635f830185611841565b6118706020830184611088565b9392505050565b7f4c656e677468206d69736d6174636800000000000000000000000000000000005f82015250565b5f6118ab600f8361153b565b91506118b682611877565b602082019050919050565b5f6020820190508181035f8301526118d88161189f565b9050919050565b7f4e6f2070617965657300000000000000000000000000000000000000000000005f82015250565b5f61191360098361153b565b915061191e826118df565b602082019050919050565b5f6020820190508181035f83015261194081611907565b9050919050565b7f4e487b71000000000000000000000000000000000000000000000000000000005f52603260045260245ffd5b5f819050919050565b5f67ffffffffffffffff82169050919050565b5f6119aa6119a56119a084611974565b6117f5565b61197d565b9050919050565b6119ba81611990565b82525050565b5f6020820190506119d35f8301846119b1565b92915050565b5f815190506119e7816111b4565b92915050565b5f60208284031215611a0257611a016110c7565b5b5f611a0f848285016119d9565b91505092915050565b7f5a65726f206164647265737300000000000000000000000000000000000000005f82015250565b5f611a4c600c8361153b565b9150611a5782611a18565b602082019050919050565b5f6020820190508181035f830152611a7981611a40565b9050919050565b7f5a65726f207368617265730000000000000000000000000000000000000000005f82015250565b5f611ab4600b8361153b565b9150611abf82611a80565b602082019050919050565b5f6020820190508181035f830152611ae181611aa8565b9050919050565b7f4475706c696361746520706179656500000000000000000000000000000000005f82015250565b5f611b1c600f8361153b565b9150611b2782611ae8565b602082019050919050565b5f6020820190508181035f830152611b4981611b10565b905091905056fea2646970667358221220f0855e9498c53862d0ab1f82b3ff1677c9782b2a3a2c21180d429b57ee5f59a864736f6c634300081e0033","linkReferences":{}},"methodIdentifiers":{"BPS_DENOMINATOR()":"e1a45218","PRIMARY_ARTIST_BPS()":"0331582e","balanceOf(address,uint256)":"00fdd58e","balanceOfBatch(address[],uint256[])":"4e1273f4","collectionMinted(uint256)":"d7423031","collections(uint256)":"fdbda0ec","isApprovedForAll(address,address)":"e985e9c5","mint(uint256)":"a0712d68","nextCollectionId()":"e77d6f7c","owner()":"8da5cb5b","publish(string,uint256,address[],uint256[])":"1b62bd14","renounceOwnership()":"715018a6","safeBatchTransferFrom(address,address,uint256[],uint256[],bytes)":"2eb2c2d6","safeTransferFrom(address,address,uint256,uint256,bytes)":"f242432a","setApprovalForAll(address,bool)":"a22cb465","splitterImplementation()":"e63db9b2","supportsInterface(bytes4)":"01ffc9a7","tokenToCollection(uint256)":"195f78ae","transferOwnership(address)":"f2fde38b","uri(uint256)":"0e89341c","usdc()":"3e413bee"},"id":1}