{"abi":[{"type":"constructor","inputs":[],"stateMutability":"nonpayable"},{"type":"receive","stateMutability":"payable"},{"type":"function","name":"initialize","inputs":[{"name":"_payees","type":"address[]","internalType":"address[]"},{"name":"_shares","type":"uint256[]","internalType":"uint256[]"}],"outputs":[],"stateMutability":"nonpayable"},{"type":"function","name":"payees","inputs":[{"name":"","type":"uint256","internalType":"uint256"}],"outputs":[{"name":"","type":"address","internalType":"address"}],"stateMutability":"view"},{"type":"function","name":"release","inputs":[{"name":"account","type":"address","internalType":"address payable"}],"outputs":[],"stateMutability":"nonpayable"},{"type":"function","name":"releaseERC20","inputs":[{"name":"token","type":"address","internalType":"contract IERC20"},{"name":"account","type":"address","internalType":"address"}],"outputs":[],"stateMutability":"nonpayable"},{"type":"function","name":"released","inputs":[{"name":"","type":"address","internalType":"address"}],"outputs":[{"name":"","type":"uint256","internalType":"uint256"}],"stateMutability":"view"},{"type":"function","name":"releasedERC20","inputs":[{"name":"","type":"address","internalType":"contract IERC20"},{"name":"","type":"address","internalType":"address"}],"outputs":[{"name":"","type":"uint256","internalType":"uint256"}],"stateMutability":"view"},{"type":"function","name":"shares","inputs":[{"name":"","type":"address","internalType":"address"}],"outputs":[{"name":"","type":"uint256","internalType":"uint256"}],"stateMutability":"view"},{"type":"function","name":"totalReleased","inputs":[],"outputs":[{"name":"","type":"uint256","internalType":"uint256"}],"stateMutability":"view"},{"type":"function","name":"totalReleasedERC20","inputs":[{"name":"","type":"address","internalType":"contract IERC20"}],"outputs":[{"name":"","type":"uint256","internalType":"uint256"}],"stateMutability":"view"},{"type":"function","name":"totalShares","inputs":[],"outputs":[{"name":"","type":"uint256","internalType":"uint256"}],"stateMutability":"view"},{"type":"event","name":"ERC20PaymentReleased","inputs":[{"name":"token","type":"address","indexed":true,"internalType":"contract IERC20"},{"name":"to","type":"address","indexed":false,"internalType":"address"},{"name":"amount","type":"uint256","indexed":false,"internalType":"uint256"}],"anonymous":false},{"type":"event","name":"Initialized","inputs":[{"name":"version","type":"uint64","indexed":false,"internalType":"uint64"}],"anonymous":false},{"type":"event","name":"PayeeAdded","inputs":[{"name":"account","type":"address","indexed":false,"internalType":"address"},{"name":"shares","type":"uint256","indexed":false,"internalType":"uint256"}],"anonymous":false},{"type":"event","name":"PaymentReceived","inputs":[{"name":"from","type":"address","indexed":false,"internalType":"address"},{"name":"amount","type":"uint256","indexed":false,"internalType":"uint256"}],"anonymous":false},{"type":"event","name":"PaymentReleased","inputs":[{"name":"to","type":"address","indexed":false,"internalType":"address"},{"name":"amount","type":"uint256","indexed":false,"internalType":"uint256"}],"anonymous":false},{"type":"error","name":"InvalidInitialization","inputs":[]},{"type":"error","name":"NotInitializing","inputs":[]},{"type":"error","name":"ReentrancyGuardReentrantCall","inputs":[]},{"type":"error","name":"SafeERC20FailedOperation","inputs":[{"name":"token","type":"address","internalType":"address"}]}],"bytecode":{"object":"0x608060405234801561000f575f5ffd5b5060015f8190555061002561002a60201b60201c565b6101a5565b5f61003961012860201b60201c565b9050805f0160089054906101000a900460ff1615610083576040517ff92ee8a900000000000000000000000000000000000000000000000000000000815260040160405180910390fd5b67ffffffffffffffff8016815f015f9054906101000a900467ffffffffffffffff1667ffffffffffffffff16146101255767ffffffffffffffff815f015f6101000a81548167ffffffffffffffff021916908367ffffffffffffffff1602179055507fc7f505b2f371ae2175ee4913f4499e1f2633a7b5936321eed1cdaeb6115181d267ffffffffffffffff60405161011c919061018c565b60405180910390a15b50565b5f5f61013861014160201b60201c565b90508091505090565b5f7ff0c57e16840df040f15088dc2f81fe391c3923bec73e23a9662efc9c229c6a005f1b905090565b5f67ffffffffffffffff82169050919050565b6101868161016a565b82525050565b5f60208201905061019f5f83018461017d565b92915050565b611b86806101b25f395ff3fe608060405260043610610094575f3560e01c80639852595c116100585780639852595c146101ca578063cdd9ac3814610206578063ce7c2ac214610242578063e33b7de31461027e578063f9a76be2146102a8576100d4565b806319165587146100d857806319766c48146101005780633a98ef391461013c57806363037b0c146101665780637fbbe46f146101a2576100d4565b366100d4577f6ef95f06320e7a25a04a175ca677b7052bdd97131872c2192525a629f51be77033346040516100ca929190611097565b60405180910390a1005b5f5ffd5b3480156100e3575f5ffd5b506100fe60048036038101906100f9919061110a565b6102d0565b005b34801561010b575f5ffd5b5061012660048036038101906101219190611170565b6105a5565b604051610133919061119b565b60405180910390f35b348015610147575f5ffd5b506101506105ba565b60405161015d919061119b565b60405180910390f35b348015610171575f5ffd5b5061018c600480360381019061018791906111de565b6105c0565b6040516101999190611209565b60405180910390f35b3480156101ad575f5ffd5b506101c860048036038101906101c3919061145c565b6105fb565b005b3480156101d5575f5ffd5b506101f060048036038101906101eb91906114d2565b610855565b6040516101fd919061119b565b60405180910390f35b348015610211575f5ffd5b5061022c600480360381019061022791906114fd565b61086a565b604051610239919061119b565b60405180910390f35b34801561024d575f5ffd5b50610268600480360381019061026391906114d2565b61088a565b604051610275919061119b565b60405180910390f35b348015610289575f5ffd5b5061029261089f565b60405161029f919061119b565b60405180910390f35b3480156102b3575f5ffd5b506102ce60048036038101906102c991906114fd565b6108a5565b005b6102d8610c77565b5f60035f8373ffffffffffffffffffffffffffffffffffffffff1673ffffffffffffffffffffffffffffffffffffffff1681526020019081526020015f205411610357576040517f08c379a000000000000000000000000000000000000000000000000000000000815260040161034e90611595565b60405180910390fd5b5f6002544761036691906115e0565b90505f60045f8473ffffffffffffffffffffffffffffffffffffffff1673ffffffffffffffffffffffffffffffffffffffff1681526020019081526020015f205460015460035f8673ffffffffffffffffffffffffffffffffffffffff1673ffffffffffffffffffffffffffffffffffffffff1681526020019081526020015f2054846103f39190611613565b6103fd9190611681565b61040791906116b1565b90505f811161044b576040517f08c379a00000000000000000000000000000000000000000000000000000000081526004016104429061172e565b60405180910390fd5b8060045f8573ffffffffffffffffffffffffffffffffffffffff1673ffffffffffffffffffffffffffffffffffffffff1681526020019081526020015f205f82825461049791906115e0565b925050819055508060025f8282546104af91906115e0565b925050819055505f8373ffffffffffffffffffffffffffffffffffffffff16826040516104db90611779565b5f6040518083038185875af1925050503d805f8114610515576040519150601f19603f3d011682016040523d82523d5f602084013e61051a565b606091505b505090508061055e576040517f08c379a0000000000000000000000000000000000000000000000000000000008152600401610555906117d7565b60405180910390fd5b7fdf20fd1e76bc69d672e4814fafb2c449bba3a5369d8359adf9e05e6fde87b056848360405161058f929190611850565b60405180910390a15050506105a2610cbb565b50565b6006602052805f5260405f205f915090505481565b60015481565b600581815481106105cf575f80fd5b905f5260205f20015f915054906101000a900473ffffffffffffffffffffffffffffffffffffffff1681565b5f610604610cc4565b90505f815f0160089054906101000a900460ff161590505f825f015f9054906101000a900467ffffffffffffffff1690505f5f8267ffffffffffffffff1614801561064c5750825b90505f60018367ffffffffffffffff1614801561067f57505f3073ffffffffffffffffffffffffffffffffffffffff163b145b90508115801561068d575080155b156106c4576040517ff92ee8a900000000000000000000000000000000000000000000000000000000815260040160405180910390fd5b6001855f015f6101000a81548167ffffffffffffffff021916908367ffffffffffffffff1602179055508315610711576001855f0160086101000a81548160ff0219169083151502179055505b8551875114610755576040517f08c379a000000000000000000000000000000000000000000000000000000000815260040161074c906118c1565b60405180910390fd5b5f875111610798576040517f08c379a000000000000000000000000000000000000000000000000000000000815260040161078f90611929565b60405180910390fd5b5f5f90505b87518110156107f1576107e48882815181106107bc576107bb611947565b5b60200260200101518883815181106107d7576107d6611947565b5b6020026020010151610cd7565b808060010191505061079d565b50831561084c575f855f0160086101000a81548160ff0219169083151502179055507fc7f505b2f371ae2175ee4913f4499e1f2633a7b5936321eed1cdaeb6115181d2600160405161084391906119c0565b60405180910390a15b50505050505050565b6004602052805f5260405f205f915090505481565b6007602052815f5260405f20602052805f5260405f205f91509150505481565b6003602052805f5260405f205f915090505481565b60025481565b6108ad610c77565b5f60035f8373ffffffffffffffffffffffffffffffffffffffff1673ffffffffffffffffffffffffffffffffffffffff1681526020019081526020015f20541161092c576040517f08c379a000000000000000000000000000000000000000000000000000000000815260040161092390611595565b60405180910390fd5b5f60065f8473ffffffffffffffffffffffffffffffffffffffff1673ffffffffffffffffffffffffffffffffffffffff1681526020019081526020015f20548373ffffffffffffffffffffffffffffffffffffffff166370a08231306040518263ffffffff1660e01b81526004016109a49190611209565b602060405180830381865afa1580156109bf573d5f5f3e3d5ffd5b505050506040513d601f19601f820116820180604052508101906109e391906119ed565b6109ed91906115e0565b90505f60075f8573ffffffffffffffffffffffffffffffffffffffff1673ffffffffffffffffffffffffffffffffffffffff1681526020019081526020015f205f8473ffffffffffffffffffffffffffffffffffffffff1673ffffffffffffffffffffffffffffffffffffffff1681526020019081526020015f205460015460035f8673ffffffffffffffffffffffffffffffffffffffff1673ffffffffffffffffffffffffffffffffffffffff1681526020019081526020015f205484610ab59190611613565b610abf9190611681565b610ac991906116b1565b90505f8111610b0d576040517f08c379a0000000000000000000000000000000000000000000000000000000008152600401610b049061172e565b60405180910390fd5b8060075f8673ffffffffffffffffffffffffffffffffffffffff1673ffffffffffffffffffffffffffffffffffffffff1681526020019081526020015f205f8573ffffffffffffffffffffffffffffffffffffffff1673ffffffffffffffffffffffffffffffffffffffff1681526020019081526020015f205f828254610b9491906115e0565b925050819055508060065f8673ffffffffffffffffffffffffffffffffffffffff1673ffffffffffffffffffffffffffffffffffffffff1681526020019081526020015f205f828254610be791906115e0565b92505081905550610c1983828673ffffffffffffffffffffffffffffffffffffffff16610efd9092919063ffffffff16565b8373ffffffffffffffffffffffffffffffffffffffff167f3be5b7a71e84ed12875d241991c70855ac5817d847039e17a9d895c1ceb0f18a8483604051610c61929190611097565b60405180910390a25050610c73610cbb565b5050565b60025f5403610cb2576040517f3ee5aeb500000000000000000000000000000000000000000000000000000000815260040160405180910390fd5b60025f81905550565b60015f81905550565b5f5f610cce610f7c565b90508091505090565b5f73ffffffffffffffffffffffffffffffffffffffff168273ffffffffffffffffffffffffffffffffffffffff1603610d45576040517f08c379a0000000000000000000000000000000000000000000000000000000008152600401610d3c90611a62565b60405180910390fd5b5f8111610d87576040517f08c379a0000000000000000000000000000000000000000000000000000000008152600401610d7e90611aca565b60405180910390fd5b5f60035f8473ffffffffffffffffffffffffffffffffffffffff1673ffffffffffffffffffffffffffffffffffffffff1681526020019081526020015f205414610e06576040517f08c379a0000000000000000000000000000000000000000000000000000000008152600401610dfd90611b32565b60405180910390fd5b600582908060018154018082558091505060019003905f5260205f20015f9091909190916101000a81548173ffffffffffffffffffffffffffffffffffffffff021916908373ffffffffffffffffffffffffffffffffffffffff1602179055508060035f8473ffffffffffffffffffffffffffffffffffffffff1673ffffffffffffffffffffffffffffffffffffffff1681526020019081526020015f20819055508060015f828254610eb991906115e0565b925050819055507f40c340f65e17194d14ddddb073d3c9f888e3cb52b5aae0c6c7706b4fbc905fac8282604051610ef1929190611097565b60405180910390a15050565b610f77838473ffffffffffffffffffffffffffffffffffffffff1663a9059cbb8585604051602401610f30929190611097565b604051602081830303815290604052915060e01b6020820180517bffffffffffffffffffffffffffffffffffffffffffffffffffffffff8381831617835250505050610fa5565b505050565b5f7ff0c57e16840df040f15088dc2f81fe391c3923bec73e23a9662efc9c229c6a005f1b905090565b5f5f60205f8451602086015f885af180610fc4576040513d5f823e3d81fd5b3d92505f519150505f8214610fdd576001811415610ff8565b5f8473ffffffffffffffffffffffffffffffffffffffff163b145b1561103a57836040517f5274afe70000000000000000000000000000000000000000000000000000000081526004016110319190611209565b60405180910390fd5b50505050565b5f73ffffffffffffffffffffffffffffffffffffffff82169050919050565b5f61106982611040565b9050919050565b6110798161105f565b82525050565b5f819050919050565b6110918161107f565b82525050565b5f6040820190506110aa5f830185611070565b6110b76020830184611088565b9392505050565b5f604051905090565b5f5ffd5b5f5ffd5b5f6110d982611040565b9050919050565b6110e9816110cf565b81146110f3575f5ffd5b50565b5f81359050611104816110e0565b92915050565b5f6020828403121561111f5761111e6110c7565b5b5f61112c848285016110f6565b91505092915050565b5f61113f8261105f565b9050919050565b61114f81611135565b8114611159575f5ffd5b50565b5f8135905061116a81611146565b92915050565b5f60208284031215611185576111846110c7565b5b5f6111928482850161115c565b91505092915050565b5f6020820190506111ae5f830184611088565b92915050565b6111bd8161107f565b81146111c7575f5ffd5b50565b5f813590506111d8816111b4565b92915050565b5f602082840312156111f3576111f26110c7565b5b5f611200848285016111ca565b91505092915050565b5f60208201905061121c5f830184611070565b92915050565b5f5ffd5b5f601f19601f8301169050919050565b7f4e487b71000000000000000000000000000000000000000000000000000000005f52604160045260245ffd5b61126c82611226565b810181811067ffffffffffffffff8211171561128b5761128a611236565b5b80604052505050565b5f61129d6110be565b90506112a98282611263565b919050565b5f67ffffffffffffffff8211156112c8576112c7611236565b5b602082029050602081019050919050565b5f5ffd5b6112e68161105f565b81146112f0575f5ffd5b50565b5f81359050611301816112dd565b92915050565b5f611319611314846112ae565b611294565b9050808382526020820190506020840283018581111561133c5761133b6112d9565b5b835b81811015611365578061135188826112f3565b84526020840193505060208101905061133e565b5050509392505050565b5f82601f83011261138357611382611222565b5b8135611393848260208601611307565b91505092915050565b5f67ffffffffffffffff8211156113b6576113b5611236565b5b602082029050602081019050919050565b5f6113d96113d48461139c565b611294565b905080838252602082019050602084028301858111156113fc576113fb6112d9565b5b835b81811015611425578061141188826111ca565b8452602084019350506020810190506113fe565b5050509392505050565b5f82601f83011261144357611442611222565b5b81356114538482602086016113c7565b91505092915050565b5f5f60408385031215611472576114716110c7565b5b5f83013567ffffffffffffffff81111561148f5761148e6110cb565b5b61149b8582860161136f565b925050602083013567ffffffffffffffff8111156114bc576114bb6110cb565b5b6114c88582860161142f565b9150509250929050565b5f602082840312156114e7576114e66110c7565b5b5f6114f4848285016112f3565b91505092915050565b5f5f60408385031215611513576115126110c7565b5b5f6115208582860161115c565b9250506020611531858286016112f3565b9150509250929050565b5f82825260208201905092915050565b7f4e6f2073686172657300000000000000000000000000000000000000000000005f82015250565b5f61157f60098361153b565b915061158a8261154b565b602082019050919050565b5f6020820190508181035f8301526115ac81611573565b9050919050565b7f4e487b71000000000000000000000000000000000000000000000000000000005f52601160045260245ffd5b5f6115ea8261107f565b91506115f58361107f565b925082820190508082111561160d5761160c6115b3565b5b92915050565b5f61161d8261107f565b91506116288361107f565b92508282026116368161107f565b9150828204841483151761164d5761164c6115b3565b5b5092915050565b7f4e487b71000000000000000000000000000000000000000000000000000000005f52601260045260245ffd5b5f61168b8261107f565b91506116968361107f565b9250826116a6576116a5611654565b5b828204905092915050565b5f6116bb8261107f565b91506116c68361107f565b92508282039050818111156116de576116dd6115b3565b5b92915050565b7f4e6f7420647565207061796d656e7400000000000000000000000000000000005f82015250565b5f611718600f8361153b565b9150611723826116e4565b602082019050919050565b5f6020820190508181035f8301526117458161170c565b9050919050565b5f81905092915050565b50565b5f6117645f8361174c565b915061176f82611756565b5f82019050919050565b5f61178382611759565b9150819050919050565b7f5472616e73666572206661696c656400000000000000000000000000000000005f82015250565b5f6117c1600f8361153b565b91506117cc8261178d565b602082019050919050565b5f6020820190508181035f8301526117ee816117b5565b9050919050565b5f819050919050565b5f61181861181361180e84611040565b6117f5565b611040565b9050919050565b5f611829826117fe565b9050919050565b5f61183a8261181f565b9050919050565b61184a81611830565b82525050565b5f6040820190506118635f830185611841565b6118706020830184611088565b9392505050565b7f4c656e677468206d69736d6174636800000000000000000000000000000000005f82015250565b5f6118ab600f8361153b565b91506118b682611877565b602082019050919050565b5f6020820190508181035f8301526118d88161189f565b9050919050565b7f4e6f2070617965657300000000000000000000000000000000000000000000005f82015250565b5f61191360098361153b565b915061191e826118df565b602082019050919050565b5f6020820190508181035f83015261194081611907565b9050919050565b7f4e487b71000000000000000000000000000000000000000000000000000000005f52603260045260245ffd5b5f819050919050565b5f67ffffffffffffffff82169050919050565b5f6119aa6119a56119a084611974565b6117f5565b61197d565b9050919050565b6119ba81611990565b82525050565b5f6020820190506119d35f8301846119b1565b92915050565b5f815190506119e7816111b4565b92915050565b5f60208284031215611a0257611a016110c7565b5b5f611a0f848285016119d9565b91505092915050565b7f5a65726f206164647265737300000000000000000000000000000000000000005f82015250565b5f611a4c600c8361153b565b9150611a5782611a18565b602082019050919050565b5f6020820190508181035f830152611a7981611a40565b9050919050565b7f5a65726f207368617265730000000000000000000000000000000000000000005f82015250565b5f611ab4600b8361153b565b9150611abf82611a80565b602082019050919050565b5f6020820190508181035f830152611ae181611aa8565b9050919050565b7f4475706c696361746520706179656500000000000000000000000000000000005f82015250565b5f611b1c600f8361153b565b9150611b2782611ae8565b602082019050919050565b5f6020820190508181035f830152611b4981611b10565b905091905056fea264697066735822122067e94e35519091f53f77122a571deeb198feec23a69ab799cfae2354b4b4cf9564736f6c634300081e0033","linkReferences":{}},"methodIdentifiers":{"initialize(address[],uint256[])":"7fbbe46f","payees(uint256)":"63037b0c","release(address)":"19165587","releaseERC20(address,address)":"f9a76be2","released(address)":"9852595c","releasedERC20(address,address)":"cdd9ac38","shares(address)":"ce7c2ac2","totalReleased()":"e33b7de3","totalReleasedERC20(address)":"19766c48","totalShares()":"3a98ef39"},"id":1}