{
  "address": "0xF39E985149034FDD8609F8B904d95370218B253c",
  "abi": [
    {
      "inputs": [
        {
          "internalType": "address",
          "name": "_artist",
          "type": "address"
        },
        {
          "internalType": "address",
          "name": "_platform",
          "type": "address"
        }
      ],
      "stateMutability": "nonpayable",
      "type": "constructor"
    },
    {
      "inputs": [
        {
          "internalType": "address",
          "name": "owner",
          "type": "address"
        }
      ],
      "name": "OwnableInvalidOwner",
      "type": "error"
    },
    {
      "inputs": [
        {
          "internalType": "address",
          "name": "account",
          "type": "address"
        }
      ],
      "name": "OwnableUnauthorizedAccount",
      "type": "error"
    },
    {
      "inputs": [],
      "name": "ReentrancyGuardReentrantCall",
      "type": "error"
    },
    {
      "inputs": [],
      "name": "TransferFailed",
      "type": "error"
    },
    {
      "inputs": [],
      "name": "ZeroAddress",
      "type": "error"
    },
    {
      "anonymous": false,
      "inputs": [
        {
          "indexed": true,
          "internalType": "address",
          "name": "previousOwner",
          "type": "address"
        },
        {
          "indexed": true,
          "internalType": "address",
          "name": "newOwner",
          "type": "address"
        }
      ],
      "name": "OwnershipTransferred",
      "type": "event"
    },
    {
      "anonymous": false,
      "inputs": [
        {
          "indexed": true,
          "internalType": "address",
          "name": "from",
          "type": "address"
        },
        {
          "indexed": false,
          "internalType": "uint256",
          "name": "amount",
          "type": "uint256"
        }
      ],
      "name": "PaymentReceived",
      "type": "event"
    },
    {
      "anonymous": false,
      "inputs": [
        {
          "indexed": true,
          "internalType": "address",
          "name": "artist",
          "type": "address"
        },
        {
          "indexed": false,
          "internalType": "uint256",
          "name": "artistAmount",
          "type": "uint256"
        },
        {
          "indexed": true,
          "internalType": "address",
          "name": "platform",
          "type": "address"
        },
        {
          "indexed": false,
          "internalType": "uint256",
          "name": "platformAmount",
          "type": "uint256"
        }
      ],
      "name": "PaymentSplit",
      "type": "event"
    },
    {
      "inputs": [],
      "name": "ARTIST_SHARES",
      "outputs": [
        {
          "internalType": "uint256",
          "name": "",
          "type": "uint256"
        }
      ],
      "stateMutability": "view",
      "type": "function"
    },
    {
      "inputs": [],
      "name": "PLATFORM_SHARES",
      "outputs": [
        {
          "internalType": "uint256",
          "name": "",
          "type": "uint256"
        }
      ],
      "stateMutability": "view",
      "type": "function"
    },
    {
      "inputs": [],
      "name": "TOTAL_SHARES",
      "outputs": [
        {
          "internalType": "uint256",
          "name": "",
          "type": "uint256"
        }
      ],
      "stateMutability": "view",
      "type": "function"
    },
    {
      "inputs": [],
      "name": "artist",
      "outputs": [
        {
          "internalType": "address",
          "name": "",
          "type": "address"
        }
      ],
      "stateMutability": "view",
      "type": "function"
    },
    {
      "inputs": [],
      "name": "getPendingSplit",
      "outputs": [
        {
          "internalType": "uint256",
          "name": "artistAmount",
          "type": "uint256"
        },
        {
          "internalType": "uint256",
          "name": "platformAmount",
          "type": "uint256"
        }
      ],
      "stateMutability": "view",
      "type": "function"
    },
    {
      "inputs": [],
      "name": "owner",
      "outputs": [
        {
          "internalType": "address",
          "name": "",
          "type": "address"
        }
      ],
      "stateMutability": "view",
      "type": "function"
    },
    {
      "inputs": [],
      "name": "platform",
      "outputs": [
        {
          "internalType": "address",
          "name": "",
          "type": "address"
        }
      ],
      "stateMutability": "view",
      "type": "function"
    },
    {
      "inputs": [],
      "name": "renounceOwnership",
      "outputs": [],
      "stateMutability": "nonpayable",
      "type": "function"
    },
    {
      "inputs": [],
      "name": "splitBalance",
      "outputs": [],
      "stateMutability": "nonpayable",
      "type": "function"
    },
    {
      "inputs": [
        {
          "internalType": "address",
          "name": "newOwner",
          "type": "address"
        }
      ],
      "name": "transferOwnership",
      "outputs": [],
      "stateMutability": "nonpayable",
      "type": "function"
    },
    {
      "stateMutability": "payable",
      "type": "receive"
    }
  ],
  "transactionHash": "0xb2c8d1326b32bd308f9864c6492d212338360b563132d8a679d3ea7d1ed0d35f",
  "args": [
    "0xa5EF5D72eA368E8c76E9bC96Bf97a77d66cD0f7b",
    "0xa5EF5D72eA368E8c76E9bC96Bf97a77d66cD0f7b"
  ],
  "numDeployments": 1,
  "solcInputHash": "8c9f08904dd7111a05e80334e3611ade",
  "bytecode": "0x60c060405234801561001057600080fd5b506040516107eb3803806107eb83398101604081905261002f91610121565b338061005557604051631e4fbdf760e01b81526000600482015260240160405180910390fd5b61005e816100b5565b50600180556001600160a01b038216158061008057506001600160a01b038116155b1561009e5760405163d92e233d60e01b815260040160405180910390fd5b6001600160a01b039182166080521660a052610154565b600080546001600160a01b038381166001600160a01b0319831681178455604051919092169283917f8be0079c531659141344cd1fd0a4f28419497f9722a3daafe3b4186f6b6457e09190a35050565b80516001600160a01b038116811461011c57600080fd5b919050565b6000806040838503121561013457600080fd5b61013d83610105565b915061014b60208401610105565b90509250929050565b60805160a0516106566101956000396000818161017f0152818161031601526103a801526000818161011e0152818161028201526103d201526106566000f3fe6080604052600436106100955760003560e01c80638186a99b116100595780638186a99b146101b657806385e3f997146101e05780638da5cb5b146101f5578063f2fde38b14610213578063fbd45e7a1461023357600080fd5b80630c84ff2e146100e457806343bc16121461010c578063449c847c146101585780634bde38c81461016d578063715018a6146101a157600080fd5b366100df5734156100dd5760405134815233907f6ef95f06320e7a25a04a175ca677b7052bdd97131872c2192525a629f51be7709060200160405180910390a26100dd610248565b005b600080fd5b3480156100f057600080fd5b506100f9600f81565b6040519081526020015b60405180910390f35b34801561011857600080fd5b506101407f000000000000000000000000000000000000000000000000000000000000000081565b6040516001600160a01b039091168152602001610103565b34801561016457600080fd5b506100dd610443565b34801561017957600080fd5b506101407f000000000000000000000000000000000000000000000000000000000000000081565b3480156101ad57600080fd5b506100dd61045e565b3480156101c257600080fd5b506101cb610470565b60408051928352602083019190915201610103565b3480156101ec57600080fd5b506100f9601081565b34801561020157600080fd5b506000546001600160a01b0316610140565b34801561021f57600080fd5b506100dd61022e366004610588565b61049e565b34801561023f57600080fd5b506100f9600181565b4760008190036102555750565b60006010610264600f846105ce565b61026e91906105eb565b9050600061027c828461060d565b905060007f00000000000000000000000000000000000000000000000000000000000000006001600160a01b03168360405160006040518083038185875af1925050503d80600081146102eb576040519150601f19603f3d011682016040523d82523d6000602084013e6102f0565b606091505b5050905080610312576040516312171d8360e31b815260040160405180910390fd5b60007f00000000000000000000000000000000000000000000000000000000000000006001600160a01b03168360405160006040518083038185875af1925050503d806000811461037f576040519150601f19603f3d011682016040523d82523d6000602084013e610384565b606091505b50509050806103a6576040516312171d8360e31b815260040160405180910390fd5b7f00000000000000000000000000000000000000000000000000000000000000006001600160a01b03167f00000000000000000000000000000000000000000000000000000000000000006001600160a01b03167f569c8877a176efd2920b70cc710217775549726456264b4dfbfa295aa7eedb1d8686604051610434929190918252602082015260400190565b60405180910390a35050505050565b61044b6104e1565b610453610248565b61045c60018055565b565b61046661050b565b61045c6000610538565b600080476010610481600f836105ce565b61048b91906105eb565b9250610497838261060d565b9150509091565b6104a661050b565b6001600160a01b0381166104d557604051631e4fbdf760e01b8152600060048201526024015b60405180910390fd5b6104de81610538565b50565b60026001540361050457604051633ee5aeb560e01b815260040160405180910390fd5b6002600155565b6000546001600160a01b0316331461045c5760405163118cdaa760e01b81523360048201526024016104cc565b600080546001600160a01b038381166001600160a01b0319831681178455604051919092169283917f8be0079c531659141344cd1fd0a4f28419497f9722a3daafe3b4186f6b6457e09190a35050565b60006020828403121561059a57600080fd5b81356001600160a01b03811681146105b157600080fd5b9392505050565b634e487b7160e01b600052601160045260246000fd5b80820281158282048414176105e5576105e56105b8565b92915050565b60008261060857634e487b7160e01b600052601260045260246000fd5b500490565b818103818111156105e5576105e56105b856fea264697066735822122076deecb39aa261c6234b94727c997f94cfa0edf20c6e06d0edd320aed2e4ef1d64736f6c63430008160033",
  "devdoc": {
    "details": "Receives royalties from marketplaces and splits them automatically  When used as royaltyReceiver in Doba with 16% royalty: - Artist receives: 15% of sale price (93.75% of 16%) - Platform receives: 1% of sale price (6.25% of 16%) - Seller keeps: 84% of sale price (minus marketplace fees)",
    "errors": {
      "OwnableInvalidOwner(address)": [
        {
          "details": "The owner is not a valid owner account. (eg. `address(0)`)"
        }
      ],
      "OwnableUnauthorizedAccount(address)": [
        {
          "details": "The caller account is not authorized to perform an operation."
        }
      ],
      "ReentrancyGuardReentrantCall()": [
        {
          "details": "Unauthorized reentrant call."
        }
      ]
    },
    "kind": "dev",
    "methods": {
      "constructor": {
        "params": {
          "_artist": "Address to receive 93.75% of payments (15% of sale)",
          "_platform": "Address to receive 6.25% of payments (1% of sale)"
        }
      },
      "owner()": {
        "details": "Returns the address of the current owner."
      },
      "renounceOwnership()": {
        "details": "Leaves the contract without owner. It will not be possible to call `onlyOwner` functions. Can only be called by the current owner. NOTE: Renouncing ownership will leave the contract without an owner, thereby disabling any functionality that is only available to the owner."
      },
      "transferOwnership(address)": {
        "details": "Transfers ownership of the contract to a new account (`newOwner`). Can only be called by the current owner."
      }
    },
    "title": "RoyaltySplitter",
    "version": 1
  },
  "userdoc": {
    "kind": "user",
    "methods": {
      "constructor": {
        "notice": "Initialize the splitter with artist and platform addresses"
      },
      "getPendingSplit()": {
        "notice": "View function to see pending split amounts"
      },
      "splitBalance()": {
        "notice": "Manually trigger payment split (in case receive() fails)"
      }
    },
    "notice": "Splits royalty payments: 93.75% to artist, 6.25% to platform",
    "version": 1
  },
  "storageLayout": {
    "storage": [
      {
        "astId": 3580,
        "contract": "contracts/RoyaltySplitter.sol:RoyaltySplitter",
        "label": "_owner",
        "offset": 0,
        "slot": "0",
        "type": "t_address"
      },
      {
        "astId": 6173,
        "contract": "contracts/RoyaltySplitter.sol:RoyaltySplitter",
        "label": "_status",
        "offset": 0,
        "slot": "1",
        "type": "t_uint256"
      }
    ],
    "types": {
      "t_address": {
        "encoding": "inplace",
        "label": "address",
        "numberOfBytes": "20"
      },
      "t_uint256": {
        "encoding": "inplace",
        "label": "uint256",
        "numberOfBytes": "32"
      }
    }
  }
}